:020000000E28C8
:100008000900FF30A100FF30A000A00B0928A10BB8
:100018000728080085018601870188018901831660
:100028000313FF30850000308600FF308700013061
:100038008800FF30890007309F00831203130818D7
:100048002A28881705208813052023280518312811
:1000580006140520061005202A2885183828861435
:10006800052086100520312805193F28061505208A
:10007800061105203828851923288615052086119C
:0400880005203F28E8
:02400E003A3D39
:00000001FF
