:020000000E28C8
:100008000900FF30A100FF30A000A00B0928A10BB8
:100018000728080085018601870188018901831660
:100028000313FF30850000308600FF308700003062
:100038008800FF30890007309F00831203130518DA
:10004800232808140520081005202A282A2888149F
:1000580005208810052030283628081505200811A5
:10006800052030283C2888150520881105203628C9
:0C007800232808160520081205203C284B
:02400E003A3D39
:00000001FF
