:020000000E28C8
:100008000900FF30A100FF30A000A00B0928A10BB8
:100018000728080085018601870188018901831660
:100028000313FF30850000308600FF308700003062
:100038008800FF30890007309F00831203130814DB
:100048000520081027288814052088102B28081553
:10005800052008112F28881505208811332808162F
:100068000520081237288816052088123B2808170B
:0E007800052008133F28881705208813232829
:02400E003A3D39
:00000001FF
