:060000000A128A1110280B
:10000800FE00030EF2000408F3000A08F4007F085B
:10001800F5000A128A150D280A128A111328F6010A
:10002800F701F801F90183160313EF0183179030E4
:100038008400AC300A168A15B6230A128A111030C9
:10004800840060300A168A15B6230A128A118301C1
:100058000A168A11072B83160313560883120313F3
:10006800CB0083160313550883120313CA008316A3
:100078000313540883120313C90083160313530888
:1000880083120313C800831603135C088312031337
:10009800CF00831603135B0883120313CE00831665
:1000A80003135A0883120313CD0083160313590848
:1000B80083120313CC000A168A11AD210A128A1181
:1000C800031C67286A280A128A155A2F83160313F5
:1000D8003008BA003A08BB00F91B7328742879283D
:1000E8007908B4007808B3007D280630B3000030E2
:1000F800B4003408BF003308BE000130BE0703183F
:10010800BF0A0030BF0766303B06031D8C288D28C8
:10011800A728C11F902891289B283F30DC008030F9
:10012800DB000030DA000030D900C001C1016730BF
:100138003A060319A028A128A7284008BE070318D3
:10014800BF0A4108BF07C801C9015608CD005508B4
:10015800CC005408CB005308CA005C08C7005B08F1
:10016800C6005A08C5005908C400F42983160313A9
:100178005C0883120313CB00831603135B088312F6
:100188000313CA00831603135A0883120313C90002
:1001980083160313590883120313C8008316031325
:1001A8004D0883120313CF00831603134C088312E0
:1001B8000313CE00831603134B0883120313CD00D9
:1001C800831603134A0883120313CC000A168A11F4
:1001D800E6230A128A11831203134B08E5004A0822
:1001E800E4004908E3004808E2000A128A1143269D
:1001F8000A128A1183120313650883160313D100A8
:1002080083120313640883160313D00083120313A5
:10021800630883160313CF0083120313620883163F
:100228000313CE00510883120313A300831603138C
:10023800500883120313A200831603134F08831276
:100248000313A100831603134E0883120313A0009F
:100258000A168A155D260A128A11831203132108C9
:1002680083160313BD008312031320088316031398
:10027800BC005C0883120313B500831603135B08E4
:1002880083120313B400831603135A08831203134B
:10029800B30083160313590883120313B20083169D
:1002A8000313510883120313B10083160313500874
:1002B80083120313B000831603134F08831203132A
:1002C800AF00831603134E0883120313AE000A12FD
:1002D8008A154E210A128A11831203133108CB00A2
:1002E8003008CA002F08C9002E08C8008316031357
:1002F8004D0883120313CF00831603134C0883128F
:100308000313CE00831603134B0883120313CD0087
:10031800831603134A0883120313CC000A168A159E
:10032800AE240A128A11831203134B08831603138F
:10033800CD00831203134A0883160313CC008312DB
:100348000313490883160313CB00831203134808C9
:1003580083160313CA00413083120313CB002030E5
:10036800CA000030C9000030C800831603135C08B7
:1003780083120313CF00831603135B08831203133E
:10038800CE00831603135A0883120313CD00831675
:100398000313590883120313CC000A168A11E623A3
:1003A8000A128A11831203134B0883160313DC0005
:1003B800831203134A0883160313DB008312031303
:1003C800490883160313DA008312031348088316B7
:1003D8000313D9000130C8070318C90A0030C90738
:1003E8004908803A83120313EC00831603133F086D
:1003F800803A831203136C02031D062A8316031323
:100408003E084802031C092A0A2ABA2840308312E7
:100418000313B100A030B0000030AF000030AE00D0
:10042800831603135C0883120313B50083160313A2
:100438005B0883120313B400831603135A0883124C
:100448000313B30083160313590883120313B2006E
:100458000A128A154E210A128A11831203133108CF
:1004680083160313D1008312031330088316031372
:10047800D000831203132F0883160313CF008312AF
:1004880003132E0883160313CE004D08831203139B
:10049800CB00831603134C0883120313CA00831678
:1004A80003134B0883120313C900831603134A0866
:1004B80083120313C800831603135108831203130E
:1004C800CF0083160313500883120313CE0083163C
:1004D80003134F0883120313CD00831603134E082A
:1004E80083120313CC000A168A11AD210A128A114D
:1004F80003187F2A802A8B2A003083160313D10021
:100508000030D0000030CF000030CE00D22A831651
:1005180003134D0883120313A300831603134C0817
:1005280083120313A200831603134B0883120313C9
:10053800A100831603134A0883120313A00083162D
:100548000313510883120313A700831603135008DB
:1005580083120313A600831603134F088312031391
:10056800A500831603134E0883120313A4000A166A
:100578008A150D260A128A11031CC32AC42AD22AF4
:10058800831603133C18C92ACA2AD22A0030D1007C
:100598000030D0000030CF000030CE0083160313A7
:1005A800510883120313A300831603135008831200
:1005B8000313A200831603134F0883120313A10029
:1005C800831603134E0883120313A0008316031324
:1005D800560883120313A7008316031355088312C2
:1005E8000313A60083160313540883120313A500EC
:1005F80083160313530883120313A4000A168A11DF
:10060800B0250A128A1183120313230883160313D1
:10061800CD0083120313220883160313CC00831220
:100628000313210883160313CB0083120313200836
:1006380083160313CA004D0883120313CB008316D5
:1006480003134C0883120313CA00831603134B08C1
:1006580083120313C900831603134A088312031372
:10066800C8004130B1002030B0000030AF00003089
:10067800AE0083160313470883120313B5008316CD
:100688000313460883120313B400831603134508A3
:1006980083120313B300831603134408831203134E
:1006A800B2000A128A154E210A128A118312031304
:1006B8003108CF003008CE002F08CD002E08CC001E
:1006C8000A168A11AD210A128A11031C6C2B6D2B94
:1006D800C02B013083160313C0070318C10A00306A
:1006E800C107413083120313B1002030B00000303D
:1006F800AF000030AE0083160313470883120313BC
:10070800B50083160313460883120313B400831637
:100718000313450883120313B30083160313440815
:1007280083120313B2000A128A154E210A128A1183
:1007380083120313310883160313C70083120313AC
:10074800300883160313C600831203132F08831679
:100758000313C500831203132E0883160313C40062
:1007680066303B06031DB92BBA2BC02B0130BE07E0
:100778000318BF0A0030BF07831603134708DC00BD
:100788004608DB004508DA004408D9004108B200F1
:100798004008B100B901B501B601C801C901962DDB
:1007A800831603135C0883120313CB008316031309
:1007B8005B0883120313CA00831603135A088312B3
:1007C8000313C90083160313590883120313C800BF
:1007D800831603134D0883120313CF0083160313E4
:1007E8004C0883120313CE00831603134B0883129D
:1007F8000313CD00831603134A0883120313CC0096
:100808000A168A11E6230A128A11831203134B0867
:10081800E5004A08E4004908E3004808E2000A1233
:100828008A1143260A128A11831203136508831654
:100838000313D10083120313640883160313D00033
:1008480083120313630883160313CF008312031361
:10085800620883160313CE00510883120313A30002
:1008680083160313500883120313A200831603137D
:100878004F0883120313A100831603134E08831233
:100888000313A0000A168A155D260A128A1183121C
:1008980003132108803AFF0080307F02031D562C85
:1008A8000A3020020318592C5A2C842C831603135F
:1008B800510883120313A3008316031350088312ED
:1008C8000313A200831603134F0883120313A10016
:1008D800831603134E0883120313A0000A168A1501
:1008E8005D260A128A118312031321088316031343
:1008F800BD0083120313200883160313BC008A2C3F
:10090800093083160313BC000030BD003908031DED
:100918008E2C8F2CC02CB21F922C932CC02C5708D5
:10092800103E84002E30831780000130D70703184B
:10093800D80A0030D807FF30C2070318C30AFF30AF
:10094800C3070130B900C02C5708103E840030306E
:10095800831780000130D7070318D80A0030D8075A
:10096800FF30C2070318C30AFF30C307FF30B507BB
:100978000318B60AFF30B60735083604031DC52C20
:10098800C62CA82C5708103E84003C08303E83171C
:1009980080000130D7070318D80A0030D807FF3085
:1009A800C2070318C30AFF30C3075C088312031386
:1009B800B500831603135B0883120313B400831670
:1009C80003135A0883120313B30083160313590839
:1009D80083120313B20083160313510883120313FF
:1009E800B10083160313500883120313B000831653
:1009F80003134F0883120313AF00831603134E0823
:100A080083120313AE000A128A154E210A128A11A4
:100A1800831203133108CB003008CA002F08C9001D
:100A28002E08C800831603134D0883120313CF0042
:100A3800831603134C0883120313CE008316031383
:100A48004B0883120313CD00831603134A0883123D
:100A58000313CC000A168A15AE240A128A118312CF
:100A680003134B0883160313CD00831203134A089C
:100A780083160313CC008312031349088316031348
:100A8800CB0083120313480883160313CA004130AE
:100A980083120313CB002030CA000030C900003095
:100AA800C800831603135C0883120313CF00831650
:100AB80003135B0883120313CE00831603135A082B
:100AC80083120313CD0083160313590883120313EB
:100AD800CC000A168A11E6230A128A11831203131C
:100AE8004B0883160313DC00831203134A0883168A
:100AF8000313DB0083120313490883160313DA0078
:100B080083120313480883160313D900FF30B10773
:100B18000318B20AFF30B2070130C8070318C90A20
:100B28000030C9074908803A83120313EC00831682
:100B380003133F08803A831203136C02031DA82D88
:100B4800831603133E0848020318AB2DAC2DBB2DAA
:100B5800831603135808803AFF0080307F02031D74
:100B6800B72D4B305702031CBA2DBB2DD42B4F3059
:100B780083160313C8000030C9004808103E8400DB
:100B880083178001103083120313EC0083160313BC
:100B9800570883120313EC028316031348088312C1
:100BA80003136C07A0001030A10083160313580824
:100BB80083120313A3008316031357088312031326
:100BC800A2000A168A1568240A128A1183160313CA
:100BD80057084802D7005808031C580A4902D80089
:100BE8005208031DF82DFA2D0130FB2D0030831219
:100BF8000313EC00ED016C0883160313C80083127D
:100C080003136D0883160313C900520803190D2E28
:100C18000E2E1A2EFF30D7070318D80AFF30D80730
:100C28005708103E84005208831780004808C20203
:100C38004908031CC303C3022A0883120313B5001F
:100C4800831603132B0883120313B60083160313AA
:100C58005708103E83120313B70083160313430883
:100C680083120313B9008316031342088312031374
:100C7800B8000A168A15CF250A128A1108008316A9
:100C88000317130883160313A90083160317120802
:100C980083160313A800831603171108831603137A
:100CA800A70083160317100883160313A6008312E0
:100CB8000313650883160313A9008312031364083A
:100CC80083160313A8008312031363088316031300
:100CD800A70083120313620883160313A6002608CD
:100CE80083120313E60083160313270883120313E2
:100CF800E70083160313280883120313E8008316FA
:100D08000313290883120313E90017300310E90CB1
:100D1800E80CE70CE60CFF3E031D8A2EFF30660543
:100D2800EA0000306705EB006A08813E831603136A
:100D3800A400831203136B080318013EFF3E8316B9
:100D48000313A5002508803AFF0080307F02031DA9
:100D5800AF2E17302402031CB22EB32EB42EF52F5B
:100D680083160313A51BB92EBA2E782F240AFF0069
:100D7800FF3083120313E600FF30E7007F30E800FE
:100D88000030E900CC2E690DE90CE80CE70CE60C04
:100D9800FF0BC72E690883160313A30083120313DE
:100DA800680883160313A2008312031367088316C7
:100DB8000313A10083120313660883160313A0000C
:100DC8002008260583120313E6008316031321085F
:100DD800270583120313E700831603132208280547
:100DE80083120313E80083160313230829058312CB
:100DF8000313E9006908680467046604031D052FE6
:100E0800062F072FB32E8316031326088312031306
:100E1800E60083160313270883120313E7008316DB
:100E28000313280883120313E80083160313290801
:100E380083120313E9001F300310E90CE80CE70CD8
:100E4800E60CFF3E031D202F69086804670466044A
:100E580003192F2F302F492F831603132008A607B5
:100E6800210803110318013E03193B2FA707220885
:100E780003110318013E0319422FA8072308031181
:100E88000318013E0319492FA907831603132009E4
:100E980083120313E6008316031321098312031335
:100EA800E70083160313220983120313E80083164D
:100EB8000313230983120313E90066088316031337
:100EC800A60583120313670883160313A705831265
:100ED8000313680883160313A8058312031369080C
:100EE80083160313A905DD2F260883120313E600D2
:100EF80083160313270883120313E70083160313CB
:100F0800280883120313E8008316031329088312A1
:100F18000313E9001F300310E90CE80CE70CE60C9A
:100F2800FF3E031D8F2F6908680467046604031DCC
:100F38009E2F9F2FAA2F003083160313A90000307D
:100F4800A8000030A7000030A600DD2F8316031389
:100F5800260883120313E600831603132708831257
:100F68000313E70083160313280883120313E8000A
:100F780083160313290883120313E90001300310B1
:100F8800E60DE70DE80DE90DFF3E031DC32F6908C7
:100F98006804670466040319D22FD32FDD2FBF30EE
:100FA80083160313A9008030A8000030A700003082
:100FB800A60083160313290883120313E50083167A
:100FC8000313280883120313E40083160313270866
:100FD80083120313E30083160313260883120313F3
:100FE800E20008009930831203139F0082308316B1
:100FF80003139F0008000800831203132308220428
:1010080021042004031909280A280C288030A30683
:1010180008008B1C1028112816288B100130831605
:1010280003179B00831203138C1C1B281C284128C0
:101038008C10831603171A0803192328242841281B
:10104800013098070318990A0030990701301902EE
:10105800383003191802031C322833284128980114
:1010680099019A0183120313121186101330F100AB
:101078000A168A152C240A128A157508FF007408A6
:101088008A0073088400720E8300FE0E7E0E09002B
:10109800831603135F0884008313000884000A166C
:1010A8008A150A200A128A15253A031D5C285D282C
:1010B80026295F08840001308007F601F701003017
:1010C800EF00FF30F800FF30F9005F0884000008E7
:1010D80084000A168A150A200A128A152E3A031D58
:1010E8007628772890285F088400013080075F08F9
:1010F80083120313A60083160313600883120313D5
:10110800A7000A168A110D200A128A1583120313E2
:101118002708F9002608F800831603135F088400DF
:1011280083130008E800680884000A168A150A2054
:101138000A128A15E700A8280130E807B3286C309E
:10114800E700B328E701B32867084C3A0319A02839
:101158002A3A0319A3280A3A0319A028A6286808D6
:1011680084000A168A150A200A128A15663A031D8F
:10117800BE28BF281E29EA286008840083170008B3
:10118800FF00043080077F0884000008E300840A19
:101198000008E400840A0008E500840A0008E60064
:1011A800F2286008840083170008FF0004308007D5
:1011B8007F0884000008E300840A0008E400840A29
:1011C8000008E500840A0008E600F22867084C3A9F
:1011D8000319D528203A0319C028F2285F0884008B
:1011E8006808013E8313800013295D08AA005E0881
:1011F800AB006608AF006508AE006408AD00630880
:10120800AC00680884000A168A150A200A128A1592
:10121800B0000A128A1590240A128A154D29680806
:1012280084000A168A150A200A128A15663A0319D2
:10123800F9281E29831603135F08840001308313DD
:1012480080074D295F088400000884000A168A1563
:101258000A200A128A15E100E201610883120313C9
:10126800A00083160313620883120313A1008316D8
:1012780003135D0883120313A200831603135E0889
:1012880083120313A3000A168A1560270A128A1507
:101298001E290800831203133108BB008030BB05E8
:1012A8003108B6003607C100B01F5B295C295D29EB
:1012B800411441080319612962297129410A031D52
:1012C800662967296F290030B1000030B00000306E
:1012D800AF000030AE00B01779290030B1000030FF
:1012E800B0000030AF000030AE0035088039BB06D2
:1012F8003508B6003607BC00B41F83298429852920
:101308003C143C08031989298A2999293C0A031D98
:101318008E298F2997290030B5000030B40000309D
:10132800B3000030B200B417A1290030B500003076
:10133800B4000030B3000030B2003C080319A529FE
:10134800A629AB294108031DAA29AB29B4290030D5
:10135800B1000030B0000030AF000030AE008F2C7C
:101368002E08A00034080A168A1521250A128A15A3
:10137800831203132108C7002008C6004608B600D8
:10138800B701B801B9013908C0003808BF003708EB
:10139800BE003608BD004708B600B701B801B9015C
:1013A8003908C5003808C4003708C3003608C20029
:1013B8002F08A00033080A168A1521250A128A1553
:1013C800831203132108C7002008C6004608B60088
:1013D800B701B801B9013608BD073708031103186A
:1013E800013E0319F829BE07380803110318013E06
:1013F8000319FF29BF07390803110318013E031910
:10140800062AC0074708B600B701B801B90136086F
:10141800C207370803110318013E0319142AC3072A
:10142800380803110318013E03191B2AC407390899
:1014380003110318013E0319222AC5073008A0002A
:1014480032080A168A1521250A128A1583120313EF
:101458002108C7002008C6004608B600B701B80131
:10146800B9013608BD07370803110318013E0319EF
:101478003E2ABE07380803110318013E0319452AFE
:10148800BF07390803110318013E03194C2AC00786
:101498004708B600B701B801B9013608C2073708CE
:1014A80003110318013E03195A2AC3073808031108
:1014B8000318013E0319612AC407390803110318E8
:1014C800013E0319682AC5070830B6000310BD0D90
:1014D800BE0DBF0DC00DB60B6A2A2F08A00032083A
:1014E8000A168A1521250A128A1583120313210860
:1014F800C7002008C6004608B6004708B700B8016C
:10150800B9013608BD07370803110318013E03194E
:101518008E2ABE07380803110318013E0319952ABD
:10152800BF07390803110318013E03199C2AC00795
:101538002E08A00033080A168A1521250A128A15D2
:10154800831203132108C7002008C6004608B60006
:101558004708B700B801B9013608BD0737080311B5
:101568000318013E0319B92ABE07380803110318E6
:10157800013E0319C02ABF07390803110318013EA9
:101588000319C72AC0070830B6000310BD0DBE0DE9
:10159800BF0DC00DB60BC92A2E08A00032080A16C6
:1015A8008A1521250A128A15831203132108C700F8
:1015B8002008C6004608B6004708B700B801B901B8
:1015C8003608BD07370803110318013E0319ED2A31
:1015D800BE07380803110318013E0319F42ABF0790
:1015E800390803110318013E0319FB2AC0072F0805
:1015F800A00034080A168A1521250A128A158312B2
:1016080003132108C7002008C6004608B60047088B
:10161800B700B801B9013608C20737080311031823
:10162800013E0319182BC307380803110318013E9C
:1016380003191F2BC407390803110318013E0319A6
:10164800262BC5073008A00033080A168A1521255D
:101658000A128A15831203132108C7002008C6003E
:101668004608B6004708B700B801B9013608C207EE
:10167800370803110318013E0319432BC307380821
:1016880003110318013E03194A2BC4073908031133
:101698000318013E0319512BC5073008A000340870
:1016A8000A168A1521250A128A158312031321089E
:1016B800C7002008C6004608B6004708B700B801AA
:1016C800B90108300310B60DB70DB80DB90DFF3EBE
:1016D800031D662B3608C207370803110318013E9D
:1016E8000319772BC307380803110318013E0319A0
:1016F8007E2BC407390803110318013E0319852BF3
:10170800C5073D08B6003E08B7003F08B8004008C6
:10171800B90018300310B90CB80CB70CB60CFF3E62
:10172800031D8E2B3608C207370803110318013E24
:1017380003199F2BC307380803110318013E031927
:10174800A62BC407390803110318013E0319AD2B52
:10175800C5070830B6000310BD0DBE0DBF0DC00D86
:10176800B60BAF2B41083C07B600B701B70D3608DA
:10177800823EC60037080318013EFF3EC700E12B32
:101788000130B6000310C20DC30DC40DC50DB60B54
:10179800C62BC01FD02BD12BD22B42140130B60040
:1017A8000310BD0DBE0DBF0DC00DB60BD42BFF3001
:1017B800C6070318C70AFF30C707C41FE42BE52B69
:1017C800C42BBC01C01FE92BEA2B062CFF303D05BA
:1017D800B600FF303E05B700FF303F05B8007F3048
:1017E8004005B90039083804370436040319FD2BBD
:1017F800FE2B012C0130BC00062C421C042C052CAD
:10180800062CFE2B3C0803190A2C0B2C3C2C01300F
:10181800C207003003180130C30700300318013035
:10182800C407003003180130C507451C1C2C1D2CAB
:101838003C2C4208B6004308B7004408B8004508E5
:10184800B9000130BA00390DB90CB80CB70CB60C98
:10185800BA0B272C3908C5003808C4003708C3005C
:101868003608C2000130C6070318C70A0030C70788
:101878004708803AFF0080307F02031D452CFF3067
:101888004602031C482C492C542C7F308312031326
:10189800C5008030C4000030C3000030C200852C71
:1018A800831203134708803AFF0080307F02031D2C
:1018B8005F2C013046020318622C632C6F2C003019
:1018C80083120313C5000030C4000030C300003089
:1018D800C200BB01852C831203134608C100FF30E8
:1018E800C205FF30C3057F30C4050030C505411C63
:1018F8007E2C7F2C802CC4174108B6000310360CB0
:10190800C5003B08C5044508B1004408B0004308B9
:10191800AF004208AE00080083160313D2012F0857
:10192800D6002E08D5002D08D4002C08D300560860
:1019380083120313CB008316031355088312031372
:10194800CA0083160313540883120313C9008316AD
:101958000313530883120313C8000030CF0000306C
:10196800CE000030CD000030CC000A168A11AD211F
:101978000A128A150318C12CC22CF92C01308316BF
:101988000313D200560883120313A300831603130C
:10199800550883120313A2008316031354088312F5
:1019A8000313A10083160313530883120313A00023
:1019B8000A128A1500200A128A15831203132308B3
:1019C80083160313D6008312031322088316031306
:1019D800D50083120313210883160313D40083123E
:1019E8000313200883160313D30083160313D701A8
:1019F800D8017708C3007608C20052080319052DDC
:101A0800062D162D5208031D0A2D0B2D102D2B30D7
:101A1800B7000030B800142D2D30B7000030B800E2
:101A28003708D200560883120313A3008316031342
:101A3800550883120313A200831603135408831254
:101A48000313A10083160313530883120313A00082
:101A58000A168A15D3260A128A158312031320033D
:101A68002104031D382D392D842D831603135208A4
:101A780003193F2D402D502D520883120317900053
:101A8800FF3083160313C2070318C30AFF30C307C6
:101A98000130D7000030D8005708103E83120313D6
:101AA800A0001830A1000A168A1511240A128A15F6
:101AB800FD3083160313C2070318C30AFF30C30798
:101AC8002A0883120313B500831603132B08831205
:101AD8000313B6001030B7008316031343088312AC
:101AE8000313B90083160313420883120313B800C3
:101AF8000A168A15CF250A128A150A128A11422E49
:101B080083160313560883120313A30083160313C3
:101B1800550883120313A200831603135408831273
:101B28000313A10083160313530883120313A000A1
:101B38000A168A15D3260A128A1583120313200857
:101B48002104031DA82DA92DCD2D8316031352089A
:101B58000319AF2DB02DC02D520883120317900022
:101B6800FF3083160313C2070318C30AFF30C307E5
:101B78000130D7000030D8005708103E83120313F5
:101B8800A0001C30A1000A168A1511240A128A1511
:101B98005C2D3F3083160313DC008030DB000030FF
:101BA800DA000030D900C001C101560883120313BE
:101BB800A30083160313550883120313A200831688
:101BC8000313540883120313A10083160313530845
:101BD80083120313A0000030A7000030A6000030D5
:101BE800A5000030A4000A168A150D260A128A15C7
:101BF8000318FF2D022E0A128A116A28132E831643
:101C080003134708DC004608DB004508DA004408EF
:101C1800D9000130C0070318C10A0030C10741309C
:101C280083120313B1002030B0000030AF00003041
:101C3800AE00831603135C0883120313B5008316E2
:101C480003135B0883120313B400831603135A08A3
:101C580083120313B3008316031359088312031363
:101C6800B2000A128A154E210A128A15831203132A
:101C7800310883160313C700831203133008831631
:101C88000313C600831203132F0883160313C5001A
:101C9800831203132E0883160313C40053088312F8
:101CA8000313EC0083160313540883120313ED0087
:101CB80083160313550883120313EE0083160313C8
:101CC800560883120313EF00831603134408831284
:101CD8000313EC02831603134508031C450F752EE6
:101CE800782E83120313ED02831603134608031C90
:101CF800460F7F2E822E83120313EE0283160313E0
:101D08004708031C470F892E8C2E83120313EF02FA
:101D180083160313831203136F08A3006E08A2002F
:101D28006D08A1006C08A0000A168A15FA230A1289
:101D38008A1583120313A31BB12E2308031DB22E89
:101D48002208031DB22E2108031DB22E02302002E4
:101D5800031DAE2E031CB12EB22E032E83160313C1
:101D6800470883120313CB00831603134608831214
:101D78000313CA0083160313450883120313C9000B
:101D880083160313440883120313C800831603132E
:101D9800560883120313CF008316031355088312C2
:101DA8000313CE0083160313540883120313CD00C4
:101DB80083160313530883120313CC000A168A11DF
:101DC800AD210A128A15031CEA2EEB2E032E831668
:101DD8000313530883120313EC00831603135408E8
:101DE80083120313ED00831603135508831203139C
:101DF800EE0083160313560883120313EF008316AD
:101E08000313590883120313EC02831603135A08A9
:101E1800031C5A0F102F132F83120313ED0283167E
:101E280003135B08031C5B0F1A2F1D2F8312031368
:101E3800EE02831603135C08031C5C0F242F272F64
:101E480083120313EF0283160313831203136F081D
:101E5800A3006E08A2006D08A1006C08A0000A1675
:101E68008A15FA230A128A1583120313A31B4F2F0C
:101E78002308031D4C2F2208031D4C2F2108031D86
:101E88004C2F02302002031D492F03184C2F4F2FCF
:101E98000A128A112F28831603135C08D6005B08E0
:101EA800D5005A08D4005908D300FF2D41308312B9
:101EB8000313CB002030CA000030C9000030C8002E
:101EC800831603135C0883120313CF0083160313CE
:101ED8005B0883120313CE00831603135A08831278
:101EE8000313CD0083160313590883120313CC0080
:101EF8000A168A11E6230A128A15831203134B085D
:101F080083160313DC00831203134A088316031392
:101F1800DB0083120313490883160313DA008312C4
:101F28000313480883160313D900FF30C0070318AA
:101F3800C10AFF30C107530883120313EC0083164C
:101F48000313540883120313ED0083160313550873
:101F580083120313EE008316031356088312031328
:101F6800EF0083160313590883120313EC02831638
:101F780003135A08031C5A0FC22FC52F83120313C9
:101F8800ED02831603135B08031C5B0FCC2FCF2FC6
:101F980083120313EE02831603135C08031C5C0F01
:101FA800D62FD92F83120313EF028316031383123C
:101FB80003136F08A3006E08A2006D08A1006C0847
:101FC800A0000A168A15FA230A128A158312031327
:101FD800A31BFF2F2308031DFE2F2208031DFE2F1E
:101FE8002108031DFE2F02302002031DFB2F0318BA
:081FF800FE2FFF2F4C2F4F2F8D
:10200200F00083160313981C07280828022870087A
:10201200831203139900080083120313A901AA0172
:10202200260884008313000884000A168A150A20F1
:102032000A168A112A3A031D1F2820284F2826082B
:102042008400013080072708840083170008FF00FE
:10205200023080077F0884000008A900840A000873
:10206200AA0060282A08A1002908A0000A30A200BC
:102072000030A3000A168A15D2240A168A11831286
:10208200031328082007A900003003180130210794
:10209200AA002608840001308313800726088400E2
:1020A200000884000A168A150A200A168A11D03EF0
:1020B200A8000A302802031C5F28602833282A0857
:1020C200A7002908A600080083120313A200220811
:1020D200A00004300310A00CFF3E031D6B28200853
:1020E2000139A100A10E08082106EF392106880056
:1020F2002208A00005300310A00CFF3E031D7C281F
:1021020020080139A100A10EA10D08082106DF391E
:10211200210688002208A00006300310A00CFF3E12
:10212200031D8E2820080139A100A10EA10DA10DC9
:1021320008082106BF39210688002208A0000730BE
:102142000310A00CFF3E031DA12820080139A100A5
:10215200A10CA10C080821067F392106880009106C
:1021620089140D3083120313A100FB30A000A00BD1
:10217200B828A10BB8288312031389102208013949
:10218200A000A00E08082006EF39200688002208C9
:10219200A0000310200C0139A100A10EA10D080816
:1021A2002106DF39210688002208A0000230031030
:1021B200A00CFF3E031DD82820080139A100A10E62
:1021C200A10DA10D08082106BF39210688002208A9
:1021D200A00003300310A00CFF3E031DEB282008D3
:1021E2000139A100A10CA10C080821067F392106A2
:1021F200880089140D3083120313A100FB30A00064
:10220200A00B0129A10B01298312031389100800D5
:1022120083120313A2002208A00004300310A00CB2
:10222200FF3E031D0F2920080139A100A10E080855
:102232002106EF39210688002208A000053003108C
:10224200A00CFF3E031D202920080139A100A10E88
:10225200A10D08082106DF39210688002208A00006
:1022620006300310A00CFF3E031D3229200801395D
:10227200A100A10EA10DA10D08082106BF3921065A
:1022820088002208A00007300310A00CFF3E031DA7
:10229200452920080139A100A10CA10C080821063A
:1022A2007F3921068800091489140D308312031323
:1022B200A100FB30A000A00B5C29A10B5C298312BA
:1022C2000313891022080139A000A00E0808200675
:1022D200EF39200688002208A0000310200C0139E3
:1022E200A100A10EA10D08082106DF3921068800F0
:1022F2002208A00002300310A00CFF3E031D7C291F
:1023020020080139A100A10EA10DA10D0808210686
:10231200BF39210688002208A00003300310A00C58
:10232200FF3E031D8F2920080139A100A10CA10C39
:10233200080821067F392106880089140D3083128E
:102342000313A100FB30A000A00BA529A10BA52916
:102352008312031389100800003083120313480507
:10236200D00000304905D10080304A05D2007F30CC
:102372004B05D3005308520451045004031DC229D3
:10238200C329CB290030CB000030CA000030C9007D
:102392000030C80000304C05D00000304D05D1009F
:1023A20080304E05D2007F304F05D30053085204CF
:1023B20051045004031DDE29DF29E7290030CF0034
:1023C2000030CE000030CD000030CC00CB1FEA2917
:1023D200EB290F2A0030D0000030D1000030D200AB
:1023E2008030D3004808D0024908031C490FFA295B
:1023F200FB29D1024A08031C4A0F002A012AD202F1
:102402004B08031C4B0F062A072AD3025308CB00A2
:102412005208CA005108C9005008C800CF1F122A2A
:10242200132A372A0030D0000030D1000030D20009
:102432008030D3004C08D0024D08031C4D0F222AD5
:10244200232AD1024E08031C4E0F282A292AD2021F
:102452004F08031C4F0F2E2A2F2AD3025308CF00F6
:102462005208CE005108CD005008CC008030CB0677
:102472008030CF064F084B02031D492A4E084A02FC
:10248200031D492A4D084902031D492A4C084802E6
:1024920003184C2A4D2A4F2A0310502A031408000D
:1024A20083120313A80028080319582A592A6D2AEF
:1024B200A31F5C2A5D2A6D2A2009AA002109AB000C
:1024C2002209AC002309AD00AA0A0319AB0A0319B9
:1024D200AC0A0319AD0A752A2308AD002208AC0024
:1024E2002108AB002008AA002308220421042004AA
:1024F200031D7C2A7D2A862A0030A3000030A20018
:102502000030A1000030A000062B9630A900942ACA
:102512000130A90701300310AD0CAC0CAB0CAA0CB6
:10252200FF3E031D8C2AFE302D05031D992A9A2A8F
:10253200892AB42A0130A9070130AA0700300318FA
:102542000130AB07003003180130AC07003003182C
:102552000130AD0701300310AD0CAC0CAB0CAA0C72
:10256200FF3E031DAC2AFF302D05031DB92ABA2AEE
:102572009B2AC62A0130A9020130A4000310AA0D29
:10258200AB0DAC0DAD0DA40BBF2AAC1BC92ACA2AD8
:10259200D02A023029020318CF2AD02ABB2A2918AE
:1025A200D32AD42ADC2AFF30AA05FF30AB057F30BC
:1025B200AC05FF30AD050310A90C2908A400A50144
:1025C200A601A70118300310A40DA50DA60DA70D95
:1025D200FF3E031DE42A2408AA042508AB042608AA
:1025E200AC042708AD0428080319F82AF92AFE2AA0
:1025F200A31FFC2AFD2AFE2AAD172D08A3002C08D2
:10260200A2002B08A1002A08A0000800FF308316B0
:102612000313850006148610880189010A168A159B
:10262200A0250A168A110A128A11F6270A168A1199
:102632000A168A15BE230A168A110A168A15CF238C
:102642000A168A110A168A15AE230A168A118312ED
:102652000313A30100300A168A1548240A168A11A8
:102662000B3083120313A3008030A4000A168A15CC
:10267200F9240A168A11831603171B080319422B21
:10268200432B3C2B9B010A168A15E3230A168A1157
:1026920083120313210883160317C3008312031343
:1026A200200883160317C200443083120313CB00A1
:1026B2007F30CA00C030C9000030C8004030B100CD
:1026C200A030B0000030AF000030AE008316031718
:1026D200420883120313A0008316031743088312D0
:1026E2000313A100A201A30100300A168A1151228C
:1026F2000A168A11831203132308B5002208B400B4
:102702002108B3002008B2000A128A154E210A16C7
:102712008A11831203133108CF003008CE002F082C
:10272200CD002E08CC000A168A11E6230A168A1159
:10273200831203134B0883160317C100831203137A
:102742004A0883160317C00083120313490883162D
:102752000317BF0083120313480883160317BE0032
:1027620083120313A30101300A168A1548240A169C
:102772008A119C3083160317AC000130AD0041086A
:10278200B1004008B0003F08AF003E08AE000A1694
:102792008A1575250A168A119C3083120313A30029
:1027A2000130A4000A168A15F9240A168A11831622
:1027B20003179801990101309A008312031312152D
:1027C20086143C2B0A128A111028831203134F0815
:1027D200D9008030D9054F08D0005007E000CE1F45
:1027E200F32BF42BF52B601460080319F92BFA2B49
:1027F2000A2C600A031DFE2BFF2B072C0030CF0092
:102802000030CE000030CD000030CC00CE17CF011A
:10281200122C0030CF000030CE000030CD0000304E
:10282200CC004B088039D9064B08D0005007E10094
:10283200CA1F1C2C1D2C1E2C611461080319222C8A
:10284200232C332C610A031D272C282C302C00301A
:10285200CB000030CA000030C9000030C800CA17DF
:10286200CB013B2C0030CB000030CA000030C90045
:102872000030C8004B084A0449044804031D422C96
:10288200432C5A2C0030CF000030CE000030CD0057
:102892000030CC008030CE047F30CF045908CF0402
:1028A2004F08CB004E08CA004D08C9004C08C800AA
:1028B200AF2D6008031D5E2C5F2C682C0030CB000E
:1028C2000030CA000030C9000030C800AF2D6008D7
:1028D200D000D1015108D30061085002D200031C7C
:1028E200D30352087F3EDA0053080318013E003E2C
:1028F200DB004F08D8004E08D7004D08D6004C0820
:10290200D5000030CF000030CE000030CD000030C6
:10291200CC000030DF000030DE000030DD0000308F
:10292200DC00E101DC2C61080319982C992CB92CEC
:102932000130D0000310D50DD60DD70DD80DD00B18
:102942009B2C0130D0000310CC0DCD0DCE0DCF0D40
:10295200D00BA42CDF1FAE2CAF2CB02C4C140130AA
:10296200D0000310DC0DDD0DDE0DDF0DD00BB22C1F
:102972004B085802031DC72C4A085702031DC72CD7
:1029820049085602031DC72C48085502031CCA2CCD
:10299200CB2CDA2C5F174808D5024908031C490FD3
:1029A200D6024A08031C4A0FD7024B08031C4B0FDE
:1029B200D8020130E1071A306102031CE12CE22C3B
:1029C200942C58085704560455040319E92CEA2C90
:1029D200092D5C14092D0130D0000310CC0DCD0D52
:1029E200CE0DCF0DD00BEE2CDF1FF82CF92CFA2CCC
:1029F2004C140130D0000310DC0DDD0DDE0DDF0DB7
:102A0200D00BFC2CFF30DA070318DB0AFF30DB07A0
:102A1200CE1F0C2D0D2DEC2CE101DF1F112D122DDF
:102A22002E2DFF305C05D000FF305D05D100FF3058
:102A32005E05D2007F305F05D30053085204510473
:102A420050040319252D262D292D0130E1002E2DAC
:102A52004C1C2C2D2D2D2E2D262D61080319322DC7
:102A6200332D642D0130CC07003003180130CD071F
:102A7200003003180130CE07003003180130CF07B1
:102A82004F1C442D452D642D4C08D0004D08D1001B
:102A92004E08D2004F08D3000130D400530DD30C9E
:102AA200D20CD10CD00CD40B4F2D5308CF005208AE
:102AB200CE005108CD005008CC000130DA070318CF
:102AC200DB0A0030DB075B08803AFF0080307F02C0
:102AD200031D6D2DFF305A02031C702D712D7F2DA9
:102AE200FF3083120313DA000030DB000030CF0026
:102AF2000030CE000030CD000030CC008312031332
:102B02005B08803AFF0080307F02031D8A2D01306E
:102B12005A0203188D2D8E2D9B2D83120313DA0179
:102B2200DB010030CF000030CE000030CD0000309D
:102B3200CC00D901831203135A08E000601CA22DB5
:102B4200A32DA52DCE17A72D7F30CE056008D0006E
:102B52000310500CCF005908CF04512C08008312E7
:102B620003132308B0008030B0052308A80028070B
:102B7200B200A21FBD2DBE2DBF2D32143208031983
:102B8200C32DC42DD42D320A031DC82DC92DD12D1C
:102B92000030A3000030A2000030A1000030A000ED
:102BA200A217A301DC2D0030A3000030A2000030E8
:102BB200A1000030A0002708B1008030B105310823
:102BC20030060319E52DE62DE72D30172708A8005A
:102BD2002807B100A61FEE2DEF2DF02D311431087C
:102BE2000319F42DF52D052E310A031DF92DFA2DA9
:102BF200022E0030A7000030A6000030A5000030F1
:102C0200A400A617A7010D2E0030A7000030A600D1
:102C12000030A5000030A400320831020318122E41
:102C2200132E372E301F162E172E192E8030B00677
:102C32003208B3003108B2003308B1002008B300F3
:102C42002408A0003308A4002108B3002508A1002D
:102C52003308A5002208B3002608A2003308A60004
:102C62002308B3002708A3003308A700B3013108E3
:102C7200A800A9012908AB0032082802AA00031CF7
:102C8200AB032B08803AFF0080307F02031D4B2EDE
:102C92001A302A02031C4E2E4F2E842E8312031347
:102CA2002308220421042004031D582E5A2E013029
:102CB2005B2E0030B3000030A3000030A2000030D1
:102CC200A1000030A0003108B2008C2E331C6A2E05
:102CD2006B2E722E3308A8000310280C0138B300A3
:102CE200742E0310B30C201C772E782E792EB31776
:102CF2000130A800230DA30CA20CA10CA00CA80B60
:102D02007B2E0130B2078312031331083202031CF7
:102D12008B2E8C2E672E301B8F2E902ED72E3208A4
:102D2200031D942E952E9E2E0030A3000030A2008B
:102D32000030A1000030A000FF2F2408A0072508C2
:102D420003110318013E0319A72EA1072608031138
:102D52000318013E0319AE2EA20727080311031818
:102D6200013E0319B52EA307231CB82EB92E8B2FB3
:102D7200331CBC2EBD2EC42E3308A8000310280C11
:102D82000138B300C62E0310B30C201CC92ECA2E64
:102D9200CB2EB3170130A800230DA30CA20CA10C5B
:102DA200A00CA80BCD2E0130B2078B2F2308803A3E
:102DB200FF002708803A7F02031DE92E260822021F
:102DC200031DE92E25082102031DE92E24082002F5
:102DD2000318EC2EED2E442FFF30A800FF30A9007F
:102DE200FF30AA00FF30AB002408AC002508AD007C
:102DF2002608AE002708AF002008AC022108031CF9
:102E0200210F042F052FAD022208031C220F0A2FC7
:102E12000B2FAE022308031C230F102F112FAF021A
:102E22002C08A8072D0803182D0F182F192FA907F2
:102E32002E0803182E0F1E2F1F2FAA072F08031864
:102E42002F0AAB072B08A3002A08A2002908A10019
:102E52002808A0008030B0063303FF3AB3003308DD
:102E6200031D342F352F522F0130A00700300318D5
:102E72000130A107003003180130A2070030031807
:102E82000130A307522F2408A0022508031C250F96
:102E9200A1022608031C260FA2022708031C270FE3
:102EA200A3022308220421042004031D592F5A2FB0
:102EB200872F3308031D5E2F5F2F872F0030A3005B
:102EC2000030A2000030A1000030A000FF2F01302E
:102ED200A8000310A00DA10DA20DA30DA80B6A2F2F
:102EE200B31F742F752F762F2014331C792F7A2F4E
:102EF2007E2F0314330DB300802F0310B30D32085D
:102F02000319842F852F872F0130B202A21F8A2F27
:102F12008B2F682FB101B31F8F2F902F9E2F330855
:102F22007F390319952F962F992F0130B1009E2FCB
:102F3200201C9C2F9D2F9E2F962F31080319A22F04
:102F4200A32FD52F0130A007003003180130A107AD
:102F5200003003180130A207003003180130A30724
:102F6200231CB42FB52FD52F2008A8002108A900B3
:102F72002208AA002308AB000130AC002B0DAB0CD9
:102F8200AA0CA90CA80CAC0BBF2F2B08A3002A0873
:102F9200A2002908A1002808A000320A0319D22F92
:102FA200D32FD52F0130B207320A0319D92FDA2FC6
:102FB200DF2F3208031DDE2FDF2FED2F0030A3009D
:102FC2000030A2000030A1000030A0003208031D32
:102FD200EB2FEC2FED2FB001321CF02FF12FF32F3E
:102FE200A217F52F7F30A2053208A8000310280C83
:102FF200A300B01FFD2FFE2FFF2FA3170800FF1BFA
:103002000A2883137F1883170008840A0319FF0A0A
:10301200080018308A000408840A820700345634F3
:103022003A34203425342E34323466342034563443
:103032000034543465346E34733461346F343A344A
:1030420000344F344B340D340A34003469346E3456
:0C305200663400346E3461346E34003497
:10375C008B170B170B168316031301178B1008000E
:10376C0064008001840A0406031900340406B72B94
:10377C008316031307178717813099001815181231
:10378C008312031398171813181283160313981621
:10379C000800033083120313920412088739583837
:1037AC009200F930831603139200831203139101D4
:1037BC008C10831603138C1408002030831203130F
:1037CC00A200A20BE72B0000831203131F151F1975
:1037DC00F02BF12BED2B1E08A100831603131E08F2
:1037EC0083120313A000080083120313A31BFF2BE7
:1037FC00002C012C102C2009A0002109A100220969
:10380C00A2002309A300A00A0319A10A0319A20A02
:10381C000319A30A0800831203132008A200013025
:10382C00A107FF30210784000A168A150A200A1600
:10383C008A15FF002208A20A84007F0883178000E3
:10384C000008031D2A2C2B2C152C08003B2C71086E
:10385C0084000A168A150A200A168A150A168A1175
:10386C0001200A168A150130F107710884000A1626
:10387C008A150A200A168A15003A031D462C472C75
:10388C002D2C080083120313A400240803194F2CB9
:10389C00502C582C2308C03EA600003003180130D1
:1038AC00A7005F2C2308803EA600003003180130CF
:1038BC00A7002608A50025080A168A1165200A16F5
:1038CC008A150800831203132108A6002008A500FE
:1038DC007C2C2608840083170008A4000130A6075E
:1038EC0025088400240880000130A5070130A202BD
:1038FC000030031CA303A302220A031D892C230AF4
:10390C00031D892C8A2C6F2C0800831603136B085B
:10391C00ED009D2C6908DD006A08DE00ED30DF004B
:10392C006C08E0000A128A154C200A168A158316B8
:10393C0003136D0884000A168A150A200A168A15C4
:10394C00003A031DAA2CAB2C902CE901EA010800CB
:10395C00803083120313CB064F08A3004E08A2003D
:10396C004D08A1004C08A0004B08A7004A08A6006F
:10397C004908A5004808A4000A168A11B0250A16A1
:10398C008A15831203132308CB002208CA002108CE
:10399C00C9002008C800080083120313A401A50164
:1039AC00201CD92CDA2CE02C2208A4070318A50A19
:1039BC002308A50701300310A20DA30DFF3E031D24
:1039CC00E12C01300310A10CA00CFF3E031DE82CD0
:1039DC0020082104031DF32CF42CD62C2508A1005F
:1039EC002408A0000800102D2408FF0023088400E0
:1039FC000A168A1500200A168A150A168A11092138
:103A0C000A168A15013083120313A3070318A40A9C
:103A1C000030A407831203132408FF00230884003A
:103A2C000A168A1500200A168A15003A031D1F2D46
:103A3C00202DFA2C080083120313A800A401A50161
:103A4C002008A200A3012208A6002308A700281C16
:103A5C00302D312D372D2608A4070318A50A270869
:103A6C00A50701300310A60DA70DFF3E031D382D31
:103A7C000310A80C2808031D442D452D2D2D2508B9
:103A8C00A1002408A000080083120313B301B401A1
:103A9C00672D3208B000B1013008A0003108A10038
:103AAC002E08A2002F08A3000A168A1560270A16F2
:103ABC008A15013083120313B3070318B40A0030BC
:103ACC00B40733082D07B0003008840083170008B2
:103ADC00B2003208031D732D742D4F2D0800AE302B
:103AEC0083160317B2002C08B3000130B400B501E3
:103AFC00B601BC01BD01B33083160313E9000130DC
:103B0C00EA00831603172D0883160313EB00B2305B
:103B1C00EC000A168A158B240A168A1583160317CD
:103B2C0035082C0783160313EE006E0884008317E8
:103B3C008001080033300A168A1165200A168A158E
:103B4C0032300A168A1165200A168A1528300A1690
:103B5C008A1165200A168A150C300A168A116520FE
:103B6C000A168A1506300A168A1165200A168A1555
:103B7C0001300A168A1165200A168A150D30831237
:103B8C000313A400FB30A300A30BCA2DA40BCA2D56
:103B9C00080083120313B91FD42DD52DD72DB801CE
:103BAC00B901BB01BC01F12D203083120313A0001D
:103BBC000030A1003508A2003608A3000A168A15A9
:103BCC0060270A168A15013083120313BB070318EA
:103BDC00BC0A0030BC073C08803ABA003908803A6D
:103BEC003A02031DFB2D38083B02031CFE2DFF2D52
:103BFC00DA2D831203133708AD003508AE003608F2
:103C0C00AF000A168A154A250A168A1508000030D4
:103C1C00831203132005A80000302105A900803071
:103C2C002205AA007F302305AB002B082A042904A7
:103C3C002804031D222E232E2B2E0030A30000302F
:103C4C00A2000030A1000030A00000302405A80024
:103C5C0000302505A90080302605AA007F302705F5
:103C6C00AB002B082A0429042804031D3E2E3F2EEA
:103C7C00472E0030A7000030A6000030A500003011
:103C8C00A40027082306031D552E26082206031D13
:103C9C00552E25082106031D552E24082006031930
:103CAC00582E592E5B2E03105C2E031408000310A3
:103CBC0083120313220D230DA9002908031D672E5F
:103CCC00682E712E0030A3000030A2000030A1003D
:103CDC000030A000D22E2008A4002108A500220844
:103CEC00A6002308A7001F300310A70CA60CA50CD8
:103CFC00A40CFF3E031D7A2E2408A800A217FF3047
:103D0C00A005FF30A105FF30A2050030A3059630B9
:103D1C00A902A91F922E932EAB2E2908803A973E0A
:103D2C000318992E9A2E9B2E682E01300310A30C8B
:103D3C00A20CA10CA00CFF3E031D9C2E0130A90768
:103D4C00031DA92EAA2E9B2EC22E20302902031C45
:103D5C00B02EB12EBD2E682E0130A4000310A00D84
:103D6C00A10DA20DA30DA40BB42E0130A90229089C
:103D7C00031DC12EC22EB22E28080319C62EC72E23
:103D8C00D22EA009A109A209A309A00A0319A10A0C
:103D9C000319A20A0319A30A0800831603171708AC
:103DAC0083120313AF008316031716088312031331
:103DBC00AE0083160317150883120313AD00831688
:103DCC000317140883120313AC002308AF00220856
:103DDC00AE002108AD002008AC002C08A4002D0872
:103DEC00A5002E08A6002F08A70017300310A70C5B
:103DFC00A60CA50CA40CFF3E031DFC2EFF302405C5
:103E0C00AA0000302505AB002A082B04031D0F2F38
:103E1C00102F332F2C08A4002D08A5002E08A60067
:103E2C002F08A70001300310A40DA50DA60DA70D9A
:103E3C00FF3E031D192F2708260425042404031D07
:103E4C00282F292F2E2F0230A0000030A1005F2F29
:103E5C000330A0000030A1005F2F2A0A2B04031DA1
:103E6C00382F392F5B2F2C08A4002D08A5002E0805
:103E7C00A6002F08A70009300310A40DA50DA60D50
:103E8C00A70DFF3E031D422F2708260425042404FA
:103E9C000319512F532F0130542F0030A800A901C2
:103EAC002808A0002908A1005F2F0430A0000030D2
:103EBC00A100080083120313220823040319672F9F
:103ECC00682F6E2F22082304031D6D2F6E2F752F64
:103EDC0020080A128A11FF270A168A15FF2F2208BA
:103EEC00093EA40023080318013E003EA500240847
:103EFC0084008317251C83130008A600840A00087D
:103F0C00A7002608270403198C2F8D2FBF2F2208FA
:103F1C00093EA40023080318013E003EA500240816
:103F2C0084008317251C83130008A600840A00084C
:103F3C00A7002208023EA80023080318013E003EF9
:103F4C00A900280884008317291C83130008AA00E1
:103F5C00840A0008AB002B08803AAC002708803A92
:103F6C002C02031DBB2F26082A020318BE2FBF2FBD
:103F7C00FF2F83120313220884008317231C83133F
:103F8C000008A400840A0008A5002208023EA6002E
:103F9C0023080318013E003EA7002608840083175F
:103FAC00271C831300082407A9002508A800031860
:103FBC00A80A801FE22FA803831203132808AA0063
:103FCC002908840083172A1C8313200880002208E8
:103FDC00023EA40023080318013E003EA50024085D
:103FEC0084008317251C831301308007840A03186F
:043FFC00800A08002F
:02400E003A3D39
:00000001FF
