:100000000A128A11E12F00308A000408840A82074C
:0800100000342534643400348F
:10072E0008008034FF3464008001840A0406031933
:10073E00003404069B2B0230F2004530F100A93044
:10074E00F000F00BA82BF10BA82BF20BA82BAF2B64
:10075E000800F71BB32BB42BB52BC02B7609F80072
:10076E007709F900F80A0319F90A7808F6007908EA
:10077E00F7000800F20072088312031388000910B4
:10078E0089142130F1007630F000F00BCC2BF10BF8
:10079E00CC2B00008312031389100800F20072089C
:1007AE00831203138800091489142130F100763066
:1007BE00F000F00BE02BF10BE02B00008312031383
:1007CE0089100800F42B7308840000080A128A119D
:1007DE00D5230A128A110130F3077308840083139C
:1007EE000008031DFB2BFC2BEA2B080038300A12E5
:1007FE008A11C1230A128A1106300A128A11C123E4
:10080E000A128A110C300A128A11C1230A128A1195
:10081E0001300A128A11C1230A128A1108003330DC
:10082E0083120313B6003108B7000030B800B901C7
:10083E00BA01C001C1013730AD000030AE00320840
:10084E00AF003630B0000A128A1139240A128A110A
:10085E008312031339083107B5003508840083135A
:10086E0080010800831203132F08FD004D2C831204
:10087E0003132D08A0002E08A1007D30A200300821
:10088E00A3000A128A11FB260A128A117D0884001F
:10089E000A128A1103200A128A11003A031D582CDB
:1008AE00592C3E2C83120313AD01AE0108000A121F
:1008BE008A1144250A128A1183120313D40044307C
:1008CE00B1000130B2005408C200C3014208B300A7
:1008DE004308B4000A128A1116240A128A118030B3
:1008EE000A128A11C1230A128A11C0300A128A1101
:1008FE00C1230A128A114430F3000A128A11E92325
:10090E000A128A110800F501F31F8E2C8F2C962CDB
:10091E00F209F309F20A0319F30A0130F500F11F87
:10092E00992C9A2C9F2CF009F109F00A0319F10A5F
:10093E00700871040319A42CA52CD22C0130F400DC
:10094E00B12C01300310F00DF10DFF3E031DA92C4B
:10095E000130F407F11FB42CB52CA82C71087302CA
:10096E00031DBB2C70087202031CBE2CBF2CC52CA1
:10097E007008F2027108031CF303F3020130031036
:10098E00F10CF00CFF3E031DC62C0130F402031DCA
:10099E00D12CD22CB52C75080319D62CD72CDC2CC7
:1009AE00F209F309F20A0319F30A7308F100720847
:1009BE00F0000800F501F11FE52CE62CED2CF009F6
:1009CE00F109F00A0319F10A0130F500F31FF02CBA
:1009DE00F12CF82CF209F309F20A0319F30A01308B
:1009EE00F506F601F701700871040319FF2C002DAE
:1009FE00352D0130F4000C2D01300310F00DF10DEA
:100A0E00FF3E031D042D0130F407F11F0F2D102D95
:100A1E00032D01300310F60DF70DFF3E031D112DB2
:100A2E0071087302031D1D2D70087202031C202D08
:100A3E00212D282D7008F2027108031CF303F30216
:100A4E00761401300310F10CF00CFF3E031D292D1E
:100A5E000130F402031D342D352D102D75080319A8
:100A6E00392D3A2D3F2DF609F709F60A0319F70A23
:100A7E007708F1007608F00008001430F000B82D69
:100A8E008312031307108714071587150618502DA8
:100A9E00512D522DF0018618552D562D582D013001
:100AAE00F00006195B2D5C2D5E2D0230F0008619CC
:100ABE00612D622D642D0330F00007148710071589
:100ACE00871506186B2D6C2D6E2D0430F0008618D0
:100ADE00712D722D742D0530F0000619772D782D9D
:100AEE007A2D0630F00086197D2D7E2D802D073053
:100AFE00F00007148714071187150618872D882D07
:100B0E008A2D0830F00086188D2D8E2D902D0930EF
:100B1E00F0000619932D942D962D0A30F0008619AB
:100B2E00992D9A2D9C2D0B30F00007148714071564
:100B3E0087110618A32DA42DA62D0C30F0008618B3
:100B4E00A92DAA2DAC2D0D30F0000619AF2DB02D0C
:100B5E00B22D0E30F0008619B52DB62DB82D0F30F2
:100B6E00F000143070060319BD2DBE2D472D7008F0
:100B7E000800720873040319C52DC62DCC2D7208FA
:100B8E007304031DCB2DCC2DD32D70080A128A11A0
:100B9E0097230A128A11592E7208093EF40073081F
:100BAE000318013E003EF500740884008317751C7F
:100BBE0083130008F600840A0008F700760877040D
:100BCE000319EA2DEB2D1D2E7208093EF400730851
:100BDE000318013E003EF500740884008317751C4F
:100BEE0083130008F600840A0008F7007208023E1C
:100BFE00F80073080318013E003EF90078088400DF
:100C0E008317791C83130008FA00840A0008FB007E
:100C1E007B08803AFC007708803A7C02031D192E6F
:100C2E0076087A0203181C2E1D2E592E7208840087
:100C3E008317731C83130008F400840A0008F50060
:100C4E007208023EF60073080318013E003EF700DC
:100C5E00760884008317771C831300087407F90045
:100C6E007508F8000318F80A801F3E2EF80378085E
:100C7E00FA007908840083177A1C831370088000A9
:100C8E007208023EF40073080318013E003EF500A0
:100C9E00740884008317751C831301308007840A3F
:100CAE000318800A0800831603138901880187013F
:100CBE00FF3086000A128A11FD230A128A110A12C7
:100CCE008A115E240A128A110A128A1144250A1206
:100CDE008A1183120313D9006008D500D601550876
:100CEE00D7005608D8005808803AFF0080307F029F
:100CFE00031D832E1F305702031C862E872E882E2F
:100D0E00C32E8312031357080A128A11C1230A1223
:100D1E008A1110308312031360020318972E982E37
:100D2E00B22E0A30590203189D2E9E2EA62E590859
:100D3E00303E0A128A11D5230A128A11AD2E590895
:100D4E00373E0A128A11D5230A128A1101308312F4
:100D5E000313E007C32EC0300A128A11C1230A12F0
:100D6E008A11C03083120313E0000130D707031835
:100D7E00D80A0030D8077A2E83120313590A0319A2
:100D8E00C92ECA2ED92E0A128A11A2230A128A112C
:100D9E000A128A1144250A128A11FF3A031DD82E0F
:100DAE00D92ECF2E0A128A11FD230A128A110A1287
:100DBE008A1144250A128A110A128A115E240A1215
:100DCE008A110A128A11A2230A128A110A128A1190
:100DDE0044250A128A11143A031DF62EF72EED2E13
:100DEE00DE2E0A128A1100288312031322088400B1
:100DFE00000884000A128A1103200A128A11253A69
:100E0E00031D0A2F0B2FC72F2208840001308007E5
:100E1E00DA01DB010030DE00FF30DC00FF30DD00E8
:100E2E00220884000008A700270884000A128A11ED
:100E3E0003200A128A11643A0319262F272F332F03
:100E4E00270884000A128A1103200A128A11693AAD
:100E5E00031D322F332FC02F230884008313000865
:100E6E00FF00023080077F0884000008A800840A73
:100E7E000008A900220884002708013E80002030C7
:100E8E00AC00A91B4B2F4D2F01304E2F0030A6006A
:100E9E000130AC022C08A03E84000A30F000003075
:100EAE00F1002908F3002808F2000A128A118A2498
:100EBE000A128A117108F7007008F6000A128A11D8
:100ECE00B0230A128A117608303E831380000A304E
:100EDE00F0000030F100831203132908F3002808F4
:100EEE00F2000A128A11E1240A128A117108831281
:100EFE000313A9007008A800280829040319882FD5
:100F0E00892F8E2F2C08031D8D2F8E2F4F2F2C08DF
:100F1E000319922F932FB92F26080319972F982F65
:100F2E00B92F0130AC022C08A03E84002D30831363
:100F3E008000B92F2C08A03E840083130008A40063
:100F4E00A5012408F0002508F1002008F200210870
:100F5E00F3000A128A11C0250A128A110130831277
:100F6E000313AC0720302C06031DBE2FBF2FA12F5D
:100F7E00E02F831203132208840001308007E02F34
:100F8E0022088400000884000A128A1103200A1223
:100F9E008A11A400A5012408F0002508F1002008FC
:100FAE00F2002108F3000A128A11C0250A128A11D2
:100FBE00C02F08000A128A1198230A128A11E00023
:100FCE000A128A1199230A128A11E1008313A030A2
:100FDE008400C0300A128A119A230A128A11DA0189
:100FEE00DB01DC01DD01DE01DF0183010A128A1162
:020FFE005A2E69
:02400E003A3D39
:00000001FF
