:060000000A128A11FC2F18
:100F760006308312031381000730831603138100A2
:100F86000B110800F001D22F0B1DCA2FCB2FC72F34
:100F96000B1106308312031381000130F0073D3038
:100FA6007002031CD72FD82FC72F080083160313F0
:100FB60007118312031307110A128A11BB270A129B
:100FC6008A11031083120313071D03140318EC2F51
:100FD600F02F831203130715F32F83120313071140
:100FE6000A128A11C5270A128A11E42F0A128A11D7
:0A0FF600002883010A128A11D92F86
:02400E00FA3F77
:00000001FF
