:100000000A128A11FC2F00308A000408840A820731
:1000100000343034313432343334343435343634DB
:100020003734383439344134423443344434453439
:1000300046345434653463346C346134203444348D
:10004000693467342E3400344434693467342E34D0
:1000500020345434653463346C34613400342534D2
:0600600075342034003469
:100B4C00F03083160313870081130800F00070083F
:100B5C00831203178D00831603178C130C140000DB
:100B6C00831203170C08080001300A128A111B2685
:100B7C000A128A110D30F400FB30F300F30BC42D74
:100B8C00F40BC42DC92D0800F10071088312031752
:100B9C008D0070088C00831603178C130C158B13A7
:100BAC0055308D00AA308D008C140000831603176D
:100BBC000C118B170800F02D730884000A128A118F
:100BCC0003200A128A110A128A1151260A128A115A
:100BDC000130F307730884000A128A1103200A12E9
:100BEC008A11003A031DFB2DFC2DE22D0800F400A8
:100BFC0074030319022E032E0B2E7308BF3EF5004F
:100C0C00003003180130F600122E73087F3EF500F9
:100C1C00003003180130F6007508F70077080A1247
:100C2C008A111B260A128A110800F2008312031380
:100C3C000910F0307205F00008080F3970048800B4
:100C4C0089141030F000F00B292E000083120313CE
:100C5C0089107208F00004300310F00DFF3E031DE4
:100C6C00322EF0307005F10008080F39710488003D
:100C7C0089141030F000F00B412E00008312031386
:100C8C0089100D30F100FB30F000F00B4B2EF10B06
:100C9C004B2E502E0800F200831203130914F0306F
:100CAC007205F00008080F397004880089141030A0
:100CBC00F000F00B5F2E00008312031389107208F2
:100CCC00F00004300310F00DFF3E031D682EF030D1
:100CDC007005F10008080F39710488008914103070
:100CEC00F000F00B772E00008312031389100D30E7
:100CFC00F100FB30F000F00B812EF10B812E862ED3
:100D0C00080083160313881308138812081289101D
:100D1C0009108230F400DD30F300F30B932EF40B4A
:100D2C00932E982E03300A128A111B260A128A114E
:100D3C002130F4007630F300F30BA22EF40BA22E2C
:100D4C00000003300A128A111B260A128A11C730BE
:100D5C00F300B02EF30BAF2EB32EB42E03300A12C9
:100D6C008A111B260A128A11C730F300BD2EF30B11
:100D7C00BC2EC02EC12E02300A128A111B260A125A
:100D8C008A1128300A128A111B260A128A110C3079
:100D9C000A128A111B260A128A1106300A128A11AB
:100DAC001B260A128A1101300A128A111B260A12FA
:100DBC008A110D30F400FB30F300F30BE32EF40B2F
:100DCC00E32EE82E0800F10104307102031CEF2E13
:100DDC00F02EF12EE92E0130F000710AF72E0310DF
:100DEC00F00DFF3E031DF52E7008FF3A831203131E
:100DFC0087005330F000F00B012F831203130618F9
:100E0C00082F092F1F2F061C0C2F0D2F092F7108CF
:100E1C00F00001300310F00DFF3E031D102F0310E6
:100E2C00700D013E84000A128A1103200A128A11E5
:100E3C00702F8618222F232F392F861C262F272F11
:100E4C00232F7108F00001300310F00DFF3E031D3D
:100E5C002A2F0310700D023E84000A128A110320FF
:100E6C000A128A11702F06193C2F3D2F532F061D85
:100E7C00402F412F3D2F7108F00001300310F00D71
:100E8C00FF3E031D442F0310700D033E84000A1215
:100E9C008A1103200A128A11702F8619562F572F88
:100EAC006D2F861D5A2F5B2F572F7108F0000130C4
:100EBC000310F00DFF3E031D5E2F0310700D043E5A
:100ECC0084000A128A1103200A128A11702F013031
:100EDC00F107EA2E0800FB010A128A1187260A1272
:100EEC008A110A128A11A6250A128A11F301F30A31
:100EFC0001300A128A11FD250A128A111C30F300E6
:100F0C000A128A11E1250A128A110A128A11E9269B
:100F1C000A128A11FC00F301F30A02300A128A1138
:100F2C00FD250A128A117C080A128A1151260A120E
:100F3C008A1146307C06031DA42FA52FC12F7B08D8
:100F4C000319A92FAA2FBB2F7B08F00000300A121F
:100F5C008A11CA250A128A114130F900EE30F800C4
:100F6C00F80BB62FF90BB62F00000A128A11BA250E
:100F7C000A128A117C2F45307C06031DC62FC72F01
:100F8C00F62F00300A128A11AC250A128A11FA00C7
:100F9C000A128A11BA250A128A11F301F30A0130D6
:100FAC000A128A11FD250A128A111130F3000A1255
:100FBC008A11E1250A128A11F301F30A02300A128E
:100FCC008A11FD250A128A117A080A128A115126F1
:100FDC000A128A110A128A11E9260A128A11BB2FE7
:100FEC007C08FB007C2F0A128A11002883010A124C
:040FFC008A11712FB6
:02400E00723D01
:00000001FF
