:060000000A128A110C280F
:10000800FE00030EF3000A08F4000A128A114B28B6
:100018000A128A110F280A128A119C200A128A11C0
:10002800F600F001F101F20183010A128A111C287D
:100038000A128A1178200A128A110A128A11862055
:100048000A128A110A128A1193200A128A1183123B
:100058000313060C0139F5007603031D34283528EF
:1000680045287508031D39283A2845287208031DB4
:100078003E283F2845280130F200F0012730F100E2
:1000880008147508F6002B280A128A110C28831206
:1000980003130C1C5028512861280C1072080319EE
:1000A8005628572861280130F00771087002031C90
:1000B8005E285F2861280810F2018B1C64286528D7
:1000C80071288B107208031D6A286B28712801306B
:1000D800F200F0011430F100081474088A00730E5D
:1000E8008300FE0E7E0E0900831603138801831217
:1000F800031388018316031306148614831203134B
:100108000810080083120313901030309004101464
:100118008F018E010C10831603130C1408008B1723
:100128000B178316031301130B168B10811308008A
:02013800013490
:02400E00393D3A
:00000001FF
