:060000000A128A11EB2F29
:100EFA0003349F3425340D349934493441341F3432
:100F0A00013419341134C134633485346134713491
:100F1A007E088A007F0882000A128A118D270A1227
:100F2A008A118000840A04087D0603190034FF0A26
:100F3A000319FE0A912F831603138801FF308600D6
:100F4A008501F10183120313851283120313061814
:100F5A00AF2FB02FAA2F0618B32FB42FBC2F7008AB
:100F6A000319B82FBA2F0130BB2F0030F0007003DD
:100F7A00031DC02FC12FDE2F0130F107103071027F
:100F8A00031CC82FC92FCA2FF1017108203E840003
:100F9A008313000888000D30F500AF30F400B63036
:100FAA00F300F30BD62FF40BD62FF50BD62F000038
:100FBA00AA2F0130F1027108031DE42FE52FCA2F71
:100FCA000F30F100CA2F0A128A1100288313303019
:100FDA00FD000730FE007D30FF00203084000A1239
:100FEA008A1191270A128A11F001F101F201830193
:060FFA000A128A11A02F6B
:02400E003A3D39
:00000001FF
