:060000000A128A11E72F2D
:100ED000013403349F3425340D349934493441347A
:100EE0001F34013419341134C1346334853461340E
:100EF00071347E088A007F0882000A128A117927DD
:100F00000A128A118000840A04087D06031900343D
:100F1000FF0A0319FE0A7D2F8316031388010614A6
:100F2000831203138801831603138113831203139F
:100F300006189B2F9C2FB72F8230F100DD30F00078
:100F4000F00BA02FF10BA02FA52F8312031306186F
:100F5000AA2FAB2FB72F74080319AF2FB12F013071
:100F6000B22F0030F400061CB62FB72FB32F740831
:100F70000319BB2FBC2FC62F0130F30710307302AB
:100F8000031CC32FC42FD02FF301D02F7308031DD0
:100F9000CA2FCB2FCE2F0F30F300D02F0130F3020A
:100FA0007308203E84008313000888000D30F2008F
:100FB000AF30F100B630F000F00BDC2FF10BDC2F7E
:100FC000F20BDC2F0000962F0A128A1100288313DF
:100FD0003030FD000730FE006930FF002030840013
:100FE0000A128A117D270A128A110A128A116827A9
:100FF0000A128A11F400F30183010A128A118C2F5C
:02400E003A3D39
:00000001FF
