:100000000A128A11EA2F00308A000408840A820743
:100010000034563465346C346F346334693464347A
:10002000613464346534203461347434753461343B
:100030006C343A342034253463340D340A340034BB
:10004000563465346C346F346334693464346134E9
:1000500064346534203461347434753461346C3400
:100060003A34203430340D340A3400345334653497
:1000700071343A342034253473340D340A34003466
:1007CE00080064008001840A04060319003404063C
:1007DE00E92BFF3083160313920083120313950146
:1007EE000C309700043092000800F00083160313BB
:1007FE00981C022C032CFD2B7008831203139900F6
:10080E0008008316031307178717813099001815F0
:10081E001812831203139817181318128316031342
:10082E00981608007008F500232C750884007108CE
:10083E00831380000130F5070130F3020030031CF2
:10084E00F403F402730A031D302C740A031D302CBA
:10085E00312C1C2C0800493083120313B0001E30BB
:10086E00B1000030B2002E30B300C430B4000030FE
:10087E00B5000A128A11C5250A128A114930F100F3
:10088E000A128A114D240A128A110800602C71086E
:10089E00840000080A128A11FC230A128A110730FA
:1008AE00F3007D30F200F20B5A2CF30B5A2C013070
:1008BE00F1077108840083130008031D672C682C50
:1008CE004E2C0800F401F501701C6E2C6F2C752C4B
:1008DE007208F4070318F50A7308F50701300310C0
:1008EE00F20DF30DFF3E031D762C01300310F10CBB
:1008FE00F00CFF3E031D7D2C70087104031D882C27
:10090E00892C6B2C7508F1007408F0000800831216
:10091E0003132E08FD00E801E901AC2C2C08A00001
:10092E002D08A1007D30A2002F08A3000030A400E6
:10093E000A128A11DD260A128A1183120313200865
:10094E00E8070318E90A2108E9077D0884000A125E
:10095E008A1103200A128A11003A031DB72CB82CF3
:10096E00952C6908AD006808AC000800F8007808FE
:10097E00F600F7017608F0007708F1001930F20062
:10098E000030F3000A128A1169240A128A117108C2
:10099E00FA007008F9007A08F7007908F6000310DB
:1009AE00F70CF60C0310F70CF60C760883120313F3
:1009BE00950079080339F60004300310F60DFF3E5A
:1009CE00031DE42C1708CF39760497000800831214
:1009DE0003136E080319F42CF52C0E2D4B30B000BA
:1009EE001430B1000030B2000130B3006E08C33EC7
:1009FE00840083130008C900CA014908B4004A08DC
:100A0E00B5000A128A11C5250A128A111B2D4B3008
:100A1E00B0001430B1000030B2001830B3000A122A
:100A2E008A11C5250A128A114B30F1000A128A1159
:100A3E004D240A128A110800FF30F00083120313AE
:100A4E00081088140815881506182E2D2F2D302DF8
:100A5E00F0018618332D342D362D0130F000061995
:100A6E00392D3A2D3C2D0230F00086193F2D402DA8
:100A7E00422D0330F000081488100815881506184A
:100A8E00492D4A2D4C2D0430F00086184F2D502D37
:100A9E00522D0530F0000619552D562D582D0630C5
:100AAE00F00086195B2D5C2D5E2D0730F0000814CA
:100ABE008814081188150618652D662D682D0830C6
:100ACE00F00086186B2D6C2D6E2D0930F00070081D
:100ADE000800F030831603138800FF3086000711DC
:100AEE000A128A11F0230A128A110A128A11082494
:100AFE000A128A11C430F0000030F100F2000A3000
:100B0E00F3000030F4000A128A1119240A128A1115
:100B1E000A128A1123250A128A1183120313E7007F
:100B2E00670A03199B2D9C2D8F2D09306E02031819
:100B3E00A12DA22DAF2D6E08C43E84006708303E55
:100B4E00831380000130EE076E08C43E84008001DE
:100B5E000A128A1132240A128A11831203136708A9
:100B6E000A128A11BD240A128A110A128A11EE245F
:100B7E000A128A118F2D0A128A11002880308312D0
:100B8E0003133202003003193102031CCF2DD02D76
:100B9E00D52D4B30EA000030EB00422E3430BB0036
:100BAE003008BE000030BF000030320202300319A0
:100BBE003102031CE32DE42DEF2D3108FF3EC7005B
:100BCE0032080318013EFF3EC800C001C101F72DD7
:100BDE000130C7000030C8000130C0000030C10035
:100BEE003E30AC000030AD003308AE003B30AF00FD
:100BFE000A128A118E240A128A11831203132D08E7
:100C0E00BD002C08BC003108320403190F2E102E23
:100C1E00422EBD1B132E142E422E3108FF3EB6005F
:100C2E0032080318013EFF3EB7003D08803AB80077
:100C3E003708803A3802031D262E36083C02031C64
:100C4E00292E2A2E352E831203133108FF3EB900AA
:100C5E0032080318013EFF3EBA003B2E83120313E7
:100C6E003D08BA003C08B90039083007B60036080E
:100C7E008400831380010800720873040319482E40
:100C8E00492E4F2E72087304031D4E2E4F2E562ED4
:100C9E0070080A128A11E7230A128A11DC2E7208D2
:100CAE00093EF40073080318013E003EF500740877
:100CBE0084008317751C83130008F600840A00084D
:100CCE00F7007608770403196D2E6E2EA02E72088B
:100CDE00093EF40073080318013E003EF500740847
:100CEE0084008317751C83130008F600840A00081D
:100CFE00F7007208023EF80073080318013E003E2A
:100D0E00F900780884008317791C83130008FA0011
:100D1E00840A0008FB007B08803AFC007708803AC2
:100D2E007C02031D9C2E76087A0203189F2EA02E9D
:100D3E00DC2E720884008317731C83130008F400E2
:100D4E00840A0008F5007208023EF60073080318C4
:100D5E00013E003EF700760884008317771C83134C
:100D6E0000087407F9007508F8000318F80A801FC8
:100D7E00C12EF8037808FA007908840083177A1CCC
:100D8E008313700880007208023EF4007308031883
:100D9E00013E003EF500740884008317751C831312
:100DAE0001308007840A0318800A08008312031397
:100DBE00A701A80122088400000884000A128A11E3
:100DCE0003200A128A11253A031DEE2EEF2ECA2F8A
:100DDE00220884000130800783160313C001C1016D
:100DEE00003083120313EC00FF3083160313C2008E
:100DFE00FF30C3008312031322088400000884000E
:100E0E000A128A1103200A128A11633A031D102F47
:100E1E00112F3A2F22088400013080072308840006
:100E2E008317241C83130008FF00023080077F08FD
:100E3E00840083130008A9002908A500A60125082F
:100E4E00F0002608F1002008F2002108F3000A1233
:100E5E008A1143260A128A11013083120313A0004D
:100E6E000030A100E92FAA012208840000088400A6
:100E7E000A128A1103200A128A11733A031D482F8F
:100E8E00492F502F22088400013080070130AA001C
:100E9E00812F22088400000884000A128A11032080
:100EAE000A128A116C3A031D5D2F5E2F812F2208C4
:100EBE0084000008013E84000A128A1103200A12DF
:100ECE008A116C3A031D6C2F6D2F812F220884001E
:100EDE000008023E84000A128A1103200A128A11A7
:100EEE00733A031D7B2F7C2F812F22088400033041
:100EFE0080074D2F2A080319852F862FC32F23080D
:100F0E0084008317241C83130008FF00023080071F
:100F1E007F08840083130008A500840A0008A60039
:100F2E002508AB00B62F2B0884000008A500A601EB
:100F3E002508F0002608F1002008F2002108F30031
:100F4E000A128A1143260A128A11013083120313E0
:100F5E00A7070318A80A0030A8070130AB072B0813
:100F6E00840083130008031DBD2FBE2F9A2F28085F
:100F7E00A1002708A000E92F220884000130800775
:100F8E00A001A101E92F22088400000884000A12A2
:100F9E008A1103200A128A11A500A6012508F00065
:100FAE002608F1002008F2002108F3000A128A1127
:100FBE0043260A128A118312031322088400013079
:100FCE008007332F080083120313E801E901EA01B9
:100FDE00EB01EC01ED01EE018313A0308400CE3065
:100FEE000A128A11E8230A128A1183010A128A113F
:020FFE00702D54
:02400E003A3D39
:00000001FF
