:100000000A128A11FC2F00308A000408840A820731
:1000100000344D344934433452344F3443344F3434
:100020004E34543452344F344C34413444344F34CD
:100030005234003444344934533443344934503412
:0A0040004C3449344E34413400348E
:100EF000F20072088312031388000910891421304C
:100F0000F1007630F000F00B832FF10B832F0000FF
:100F10008312031389100800F2007208831203136E
:100F20008800091489142130F1007630F000F00BAC
:100F3000972FF10B972F00008312031389100800DD
:100F4000F501B12F7508730784000A128A11032076
:100F50000A128A110A128A118C270A128A11013088
:100F6000F50774087502031CB62FB72FA22F0800CF
:100F700038300A128A1178270A128A1106300A12AA
:100F80008A1178270A128A110C300A128A117827DE
:100F90000A128A1101300A128A1178270A128A115C
:100FA000080083160313890188010A128A11B827E1
:100FB0000A128A1180300A128A1178270A128A11BD
:100FC0001230F3000A30F4000A128A11A0270A1224
:100FD0008A11C0300A128A1178270A128A11013048
:100FE000F3001030F4000A128A11A0270A128A11A5
:100FF000DA2F0A128A11002883010A128A11D12FCE
:02400E00BA3DB9
:00000001FF
