:060000000A128A11E42F30
:10000800080083160317170883120313A500831625
:100018000317160883120313A40083160317150881
:1000280083120313A3008316031714088312031300
:10003800A2007308A5007208A4007108A300700844
:10004800A2002208F4002308F5002408F600250879
:10005800F70017300310F70CF60CF50CF40CFF3E04
:10006800031D2E28FF307405A00000307505A1007F
:1000780020082104031D4128422865282208F4008D
:100088002308F5002408F6002508F70001300310BE
:10009800F40DF50DF60DF70DFF3E031D4B287708FF
:1000A800760475047404031D5A285B2860280230FE
:1000B800F0000030F10091280330F0000030F1002A
:1000C8009128200A2104031D6A286B288D282208FC
:1000D800F4002308F5002408F6002508F700093085
:1000E8000310F40DF50DF60DF70DFF3E031D7428F2
:1000F8007708760475047404031983288528013069
:1001080086280030F800F9017808F0007908F10035
:1001180091280430F0000030F10008003F308316C9
:100128000313CF008030CE000030CD000030CC006B
:10013800B301B4014908F3004808F2004708F10088
:100148004608F0000030F7000030F6000030F500F7
:100158000030F4000A168A15B2270A128A11031809
:10016800B628B728802AC828831603133A08CF0070
:100178003908CE003808CD003708CC000130B30765
:100188000318B40A0030B407413083120313A300E4
:100198002030A2000030A1000030A0008316031315
:1001A8004F0883120313A700831603134E08831204
:1001B8000313A600831603134D0883120313A50027
:1001C800831603134C0883120313A4000A128A151A
:1001D800BE240A128A1183120313230883160313F9
:1001E800BA0083120313220883160313B90083127B
:1001F8000313210883160313B8008312031320087E
:1002080083160313B7004608A0004708A100480852
:10021800A2004908A3003708A0023808031C380FB9
:1002280016291729A1023908031C390F1C291D2971
:10023800A2023A08031C3A0F22292329A302230801
:10024800F3002208F2002108F1002008F0000A1645
:100258008A1530260A128A11F31B42297308031DD6
:1002680043297208031D43297108031D43290230DD
:100278007002031D3F29031C42294329B82883160D
:1002880003133A0883120313BD00831603133908B6
:1002980083120313BC008316031338088312031355
:1002A800BB0083160313370883120313BA0083169F
:1002B8000313490883120313C10083160313480864
:1002C80083120313C0008316031347088312031312
:1002D800BF0083160313460883120313BE000A16D1
:1002E8008A117C210A128A11031C7B297C29B828CF
:1002F800831603134608A0004708A1004808A20077
:100308004908A3004C08A0024D08031C4D0F8D2975
:100318008E29A1024E08031C4E0F93299429A2028C
:100328004F08031C4F0F99299A29A3022308F300A9
:100338002208F2002108F1002008F0000A168A15A8
:1003480030260A128A11F31BBA297308031DB9292A
:100358007208031DB9297108031DB92902307002FA
:10036800031DB6290318B929BA29472A8316031386
:100378004F08C9004E08C8004D08C7004C08C60001
:10038800802A413083120313BD002030BC000030A6
:10039800BB000030BA00831603134F0883120313FF
:1003A800C100831603134E0883120313C00083167B
:1003B80003134D0883120313BF00831603134C085D
:1003C80083120313BE000A128A1598200A128A1192
:1003D800831203133D0883160313CF0083120313FC
:1003E8003C0883160313CE00831203133B088316BD
:1003F8000313CD00831203133A0883160313CC00AA
:10040800FF30B3070318B40AFF30B4074608A0004A
:100418004708A1004808A2004908A3004C08A00208
:100428004D08031C4D0F192A1A2AA1024E08031C55
:100438004E0F1F2A202AA2024F08031C4F0F252AFD
:10044800262AA3022308F3002208F2002108F1005B
:100458002008F0000A168A1530260A128A11F31BA2
:10046800462A7308031D452A7208031D452A710888
:10047800031D452A02307002031D422A0318452A2B
:10048800462A472ABA2983160313490883120313F5
:10049800BD0083160313480883120313BC00831698
:1004A8000313470883120313BB008316031346087C
:1004B80083120313BA00831603134F08831203131E
:1004C800C100831603134E0883120313C00083165A
:1004D80003134D0883120313BF00831603134C083C
:1004E80083120313BE000A168A117C210A128A118C
:1004F800031C7F2A802AC529831203136E088316DA
:100508000313AD002D08AE00EE1B8B2A8C2A912A0E
:100518006E08A7006D08A600952A0630A6000030D0
:10052800A7002708B2002608B1000130B107031858
:10053800B20A0030B20766302E06031DA42AA52A87
:10054800BF2AB41FA82AA92AB32A3F30CF00803077
:10055800CE000030CD000030CC00B301B4016730CC
:100568002D060319B82AB92ABF2A3308B107031878
:10057800B20A3408B207C301C4014908BE004808DA
:10058800BD004708BC004608BB004F08BA004E082B
:10059800B9004D08B8004C08B700F82B83160313B0
:1005A8004F0883120313BD00831603134E088312EA
:1005B8000313BC00831603134D0883120313BB00F7
:1005C800831603134C0883120313BA00831603130C
:1005D8003E0883120313C100831603133D088312D8
:1005E8000313C000831603133C0883120313BF00D0
:1005F800831603133B0883120313BE000A128A15DD
:1006080098200A128A11831203133D08D7003C0868
:10061800D6003B08D5003A08D4000A168A11672587
:100628000A128A1183120313570883160313C20090
:1006380083120313560883160313C100831203138E
:10064800550883160313C000831203135408831636
:100658000313BF004208F3004108F2004008F1000C
:100668003F08F0000A128A1524200A128A1171081C
:1006780083160313B0007008AF004F0883120313EA
:10068800A700831603134E0883120313A6008316CC
:1006980003134D0883120313A500831603134C0894
:1006A80083120313A400831603134208831203134F
:1006B800A30083160313410883120313A2008316B1
:1006C8000313400883120313A100831603133F0882
:1006D80083120313A0000A128A15BE240A128A1173
:1006E800831203132308BD002208BC002108BB00A5
:1006F8002008BA00831603133E0883120313C100AF
:10070800831603133D0883120313C00083160313D3
:100718003C0883120313BF00831603133B0883129C
:100728000313BE000A128A1500200A128A118312C6
:1007380003133D0883160313BE00831203133C08FA
:1007480083160313BD00831203133B088316031398
:10075800BC00831203133A0883160313BB0041300D
:1007680083120313BD002030BC000030BB000030F2
:10077800BA00831603134F0883120313C1008316AC
:1007880003134E0883120313C000831603134D0886
:1007980083120313BF00831603134C088312031339
:1007A800BE000A128A1598200A128A1183120313AE
:1007B8003D0883160313CF00831203133C088316E6
:1007C8000313CE00831203133B0883160313CD00D3
:1007D800831203133A0883160313CC000130C307AE
:1007E8000318C40A0030C4074408803AA00032083D
:1007F800803A2002031D022C31084302031C052CF9
:10080800062CD22A403083120313A300A030A20082
:100818000030A1000030A000831603134F08831294
:100828000313A700831603134E0883120313A600AD
:10083800831603134D0883120313A50083160313AD
:100848004C0883120313A4000A128A15BE240A1244
:100858008A1183120313230883160313C200831219
:100868000313220883160313C100831203132108FC
:1008780083160313C000831203132008831603137F
:10088800BF003E0883120313BD00831603133D08FF
:1008980083120313BC00831603133C08831203134B
:1008A800BB00831603133B0883120313BA00831695
:1008B8000313420883120313C1008316031341086C
:1008C80083120313C0008316031340088312031313
:1008D800BF00831603133F0883120313BE000A16D2
:1008E8008A117C210A128A1103187B2C7C2C872CF4
:1008F800003083160313C2000030C1000030C0006E
:100908000030BF00B02C831603133E08F3003D08E7
:10091800F2003C08F1003B08F0004208F7004108EB
:10092800F6004008F5003F08F4000A168A15B227B9
:100938000A128A11031CA12CA22CB02C83160313B3
:100948002F18A72CA82CB02C0030C2000030C100F2
:100958000030C0000030BF00831603134208F300C4
:100968004108F2004008F1003F08F0004908F7008C
:100978004808F6004708F5004608F4000A128A15E8
:1009880062220A128A11730883160313BE007208C2
:10099800BD007108BC007008BB003E088312031339
:1009A800BD00831603133D0883120313BC0083168E
:1009B80003133C0883120313BB00831603133B087D
:1009C80083120313BA004130A3002030A200003084
:1009D800A1000030A000831603133A088312031302
:1009E800A70083160313390883120313A60083167E
:1009F8000313380883120313A5008316031337085B
:100A080083120313A4000A128A15BE240A128A113B
:100A1800831203132308C1002208C0002108BF0065
:100A28002008BE000A168A117C210A128A11031CAA
:100A38001E2D1F2D722D013083160313B3070318C3
:100A4800B40A0030B407413083120313A3002030E6
:100A5800A2000030A1000030A000831603133A085A
:100A680083120313A7008316031339088312031391
:100A7800A60083160313380883120313A5008316F0
:100A88000313370883120313A4000A128A15BE241D
:100A98000A128A1183120313230883160313BA0058
:100AA80083120313220883160313B9008312031356
:100AB800210883160313B800831203132008831632
:100AC8000313B70066302E06031D6B2D6C2D722D97
:100AD8000130B1070318B20A0030B20783160313B6
:100AE8003A08CF003908CE003808CD003708CC00C6
:100AF8003408A5003308A400AC01A801A901C3016A
:100B0800C401242F831603134F0883120313BD0057
:100B1800831603134E0883120313BC0083160313B2
:100B28004D0883120313BB00831603134C0883126A
:100B38000313BA00831603133E0883120313C1007C
:100B4800831603133D0883120313C000831603138F
:100B58003C0883120313BF00831603133B08831258
:100B68000313BE000A128A1598200A128A118312EA
:100B780003133D08D7003C08D6003B08D5003A08C7
:100B8800D4000A168A1167250A128A1183120313E0
:100B9800570883160313C2008312031356088316DB
:100BA8000313C10083120313550883160313C000EF
:100BB80083120313540883160313BF004208F3007B
:100BC8004108F2004008F1003F08F0000A128A15B7
:100BD80024200A128A117108803AFF0080307F02AF
:100BE800031DF82D0A3070020318FB2DFC2D122E60
:100BF800831603134208F3004108F2004008F1008D
:100C08003F08F0000A128A1524200A128A11710876
:100C180083160313B0007008AF00182E093083162E
:100C28000313AF000030B0002C08031D1C2E1D2E2E
:100C38004E2EA51F202E212E4E2E4A08103E84002F
:100C48002E30831780000130CA070318CB0A003002
:100C5800CB07FF30B5070318B60AFF30B6070130D7
:100C6800AC004E2E4A08103E8400303083178000B6
:100C78000130CA070318CB0A0030CB07FF30B5078D
:100C88000318B60AFF30B607FF30A8070318A90AE9
:100C9800FF30A90728082904031D532E542E362E89
:100CA8004A08103E84002F08303E83178000013028
:100CB800CA070318CB0A0030CB07FF30B507031863
:100CC800B60AFF30B6074F0883120313A70083162E
:100CD80003134E0883120313A600831603134D084B
:100CE80083120313A500831603134C0883120313FE
:100CF800A40083160313420883120313A300831668
:100D08000313410883120313A20083160313400838
:100D180083120313A100831603133F0883120313DE
:100D2800A0000A128A15BE240A128A11831203131C
:100D38002308BD002208BC002108BB002008BA0017
:100D4800831603133E0883120313C100831603138B
:100D58003D0883120313C000831603133C08831253
:100D68000313BF00831603133B0883120313BE004B
:100D78000A128A1500200A128A11831203133D08E9
:100D880083160313BE00831203133C088316031350
:100D9800BD00831203133B0883160313BC008312A0
:100DA80003133A0883160313BB004130831203135D
:100DB800BD002030BC000030BB000030BA008316F4
:100DC80003134F0883120313C100831603134E083D
:100DD80083120313C000831603134D0883120313F1
:100DE800BF00831603134C0883120313BE000A12B4
:100DF8008A1598200A128A11831203133D08831654
:100E08000313CF00831203133C0883160313CE0089
:100E1800831203133B0883160313CD0083120313B5
:100E28003A0883160313CC00FF30A4070318A50A59
:100E3800FF30A5070130C3070318C40A0030C407F0
:100E48004408803AA0003208803A2002031D2E2F61
:100E5800310843020318312F322F412F8316031311
:100E68004B08803AFF0080307F02031D3D2F4B3036
:100E78004A02031C402F412F862D4F30831603133F
:100E8800C3000030C4004308103E8400831780016B
:100E98001030A0004A08A00243082007F0001030D4
:100EA800F1004B08F3004A08F2000A168A15772663
:100EB8000A128A11831603134A084302CA004B0810
:100EC800031C4B0A4402CB004508031D6C2F6E2FF0
:100ED80001306F2F0030A000A1012008C3002108B5
:100EE800C400EF1C782F792FAC2F8E2FFF3083167C
:100EF8000313CA070318CB0AFF30CB074A08103E72
:100F08008400303083178000FF30B5070318B60A15
:100F1800FF30B6074408803AA0003608803A20021D
:100F2800031D982F3508430203189B2F9C2FAC2FC5
:100F3800831603134408803AA0004B08803A200225
:100F4800031DA82F4A084302031CAB2FAC2F7A2F8E
:100F58008316031345080319B22FB32FBF2FFF3091
:100F6800CA070318CB0AFF30CB074A08103E840093
:100F78004508831780004308B5024408031CB603DC
:100F8800B602831203136808A8006908A90083162B
:100F980003134A08103E83120313AA00831603138F
:100FA800360883120313AC00831603133508831223
:100FB8000313AB000A168A118B200A128A11080043
:100FC80083160313EB01EC01ED01EE01EF0183172A
:100FD80090308400A8300A168A15D1250A128A1181
:100FE8001030840060300A168A15D1250A128A1139
:100FF80083010A168A11842B803083120313BD06DD
:101008004108F3004008F2003F08F1003E08F000F4
:101018003D08F7003C08F6003B08F5003A08F400E4
:101028000A128A1562220A128A1573088312031398
:10103800BD007208BC007108BB007008BA00080047
:101048000310720D730DF9007908031D2C282D2843
:1010580036280030F3000030F2000030F100003094
:10106800F00097287008F4007108F5007208F6007F
:101078007308F7001F300310F70CF60CF50CF40C8E
:10108800FF3E031D3F287408F800F217FF30F005F3
:10109800FF30F105FF30F2050030F3059630F90214
:1010A800F91F5728582870287908803A973E03185E
:1010B8005E285F2860282D2801300310F30CF20CFD
:1010C800F10CF00CFF3E031D61280130F907031DE8
:1010D8006E286F286028872820307902031C75281D
:1010E800762882282D280130F4000310F00DF10D28
:1010F800F20DF30DF40B79280130F9027908031D7C
:10110800862887287728780803198B288C28972819
:10111800F009F109F209F309F00A0319F10A0319B0
:10112800F20A0319F30A0800831203134108CB00DB
:101138008030CB054108C2004207D200C01FA52855
:10114800A628A728521452080319AB28AC28BC2893
:10115800520A031DB028B128B9280030C100003058
:10116800C0000030BF000030BE00C017C101C42855
:101178000030C1000030C0000030BF000030BE00A9
:101188003D088039CB063D08C2004207D300BC1F8A
:10119800CE28CF28D028531453080319D428D5288B
:1011A800E528530A031DD928DA28E2280030BD00B3
:1011B8000030BC000030BB000030BA00BC17BD01D5
:1011C800ED280030BD000030BC000030BB0000300E
:1011D800BA003D083C043B043A04031DF428F528F2
:1011E8000C290030C1000030C0000030BF000030C2
:1011F800BE008030C0047F30C1044B08C1044108E0
:10120800BD004008BC003F08BB003E08BA00612A88
:101218005208031D102911291A290030BD00003079
:10122800BC000030BB000030BA00612A5208C2007E
:10123800C3014308C50053084202C400031CC50388
:1012480044087F3ECC0045080318013E003ECD000F
:101258004108CA004008C9003F08C8003E08C70046
:101268000030C1000030C0000030BF000030BE00B8
:101278000030D1000030D0000030CF000030CE0068
:10128800D3018E29530803194A294B296B290130A8
:10129800C2000310C70DC80DC90DCA0DC20B4D29D8
:1012A8000130C2000310BE0DBF0DC00DC10DC20B31
:1012B8005629D11F6029612962293E140130C200D4
:1012C8000310CE0DCF0DD00DD10DC20B64293D08F2
:1012D8004A02031D79293C084902031D79293B0864
:1012E8004802031D79293A084702031C7C297D29F5
:1012F8008C2951173A08C7023B08031C3B0FC80248
:101308003C08031C3C0FC9023D08031C3D0FCA02E0
:101318000130D3071A305302031C93299429462914
:101328004A0849044804470403199B299C29BB29F6
:101338004E14BB290130C2000310BE0DBF0DC00DF5
:10134800C10DC20BA029D11FAA29AB29AC293E1473
:101358000130C2000310CE0DCF0DD00DD10DC20B40
:10136800AE29FF30CC070318CD0AFF30CD07C01FC8
:10137800BE29BF299E29D301D11FC329C429E02929
:10138800FF304E05C200FF304F05C300FF30500547
:10139800C4007F305105C500450844044304420495
:1013A8000319D729D829DB290130D300E0293E1CAD
:1013B800DE29DF29E029D82953080319E429E5297A
:1013C800162A0130BE07003003180130BF0700306D
:1013D80003180130C007003003180130C107411C51
:1013E800F629F729162A3E08C2003F08C30040081C
:1013F800C4004108C5000130C600450DC50CC40C29
:10140800C30CC20CC60B012A4508C1004408C00021
:101418004308BF004208BE000130CC070318CD0ABC
:101428000030CD074D08803AFF0080307F02031D51
:101438001F2AFF304C02031C222A232A312AFF309C
:1014480083120313CC000030CD000030C1000030FF
:10145800C0000030BF000030BE00831203134D08E7
:10146800803AFF0080307F02031D3C2A01304C0285
:1014780003183F2A402A4D2A83120313CC01CD01B9
:101488000030C1000030C0000030BF000030BE0096
:10149800CB01831203134C08D200521C542A552A3C
:1014A800572AC017592A7F30C0055208C2000310B6
:1014B800420CC1004B08C104032908007308F80056
:1014C8008030F805730883120313A0002007FA0080
:1014D800F21F6F2A702A712A7A147A080319752A5A
:1014E800762A862A7A0A031D7A2A7B2A832A0030DA
:1014F800F3000030F2000030F1000030F000F21785
:10150800F3018E2A0030F3000030F2000030F100C1
:101518000030F0007708F9008030F905790878067E
:101528000319972A982A992A78177708A00020077C
:10153800F900F61FA02AA12AA22A7914790803190A
:10154800A62AA72AB72A790A031DAB2AAC2AB42AE5
:101558000030F7000030F6000030F5000030F400ED
:10156800F617F701BF2A0030F7000030F600003008
:10157800F5000030F4007A0879020318C42AC52A55
:10158800E92A781FC82AC92ACB2A8030F8067A089F
:10159800FB007908FA007B08F9007008FB00740862
:1015A800F0007B08F4007108FB007508F1007B0867
:1015B800F5007208FB007608F2007B08F600730855
:1015C800FB007708F3007B08F700FB017908A0000F
:1015D800A1012108A3007A082002A200031CA3038A
:1015E8002308803AFF0080307F02031DFD2A1A304D
:1015F8002202031C002B012B382B73087204710480
:101608007004031D082B0A2B01300B2B0030FB0044
:101618000030F3000030F2000030F1000030F0003C
:101628007908FA003E2B7B1C1A2B1B2B242B7B08DA
:1016380083120313A0000310200C0138FB00262B93
:101648000310FB0C701C292B2A2B2B2BFB170130AA
:1016580083120313A000730DF30CF20CF10CF00CC1
:10166800A00B2F2B0130FA0779087A02031C3D2BB7
:101678003E2B172B781B412B422B8D2B7A08031DF1
:10168800462B472B502B0030F3000030F20000307F
:10169800F1000030F000BD2C7408F0077508031144
:1016A8000318013E0319592BF10776080311031893
:1016B800013E0319602BF207770803110318013E56
:1016C8000319672BF307731C6A2B6B2B452C7B1CA8
:1016D8006E2B6F2B782B7B0883120313A00003104B
:1016E800200C0138FB007A2B0310FB0C701C7D2B9F
:1016F8007E2B7F2BFB17013083120313A000730D81
:10170800F30CF20CF10CF00CA00B832B0130FA0750
:10171800452C7308803AFF007708803A7F02031D42
:101728009F2B76087202031D9F2B75087102031DFB
:101738009F2B740870020318A22BA32BFC2BFF30DD
:1017480083120313A000FF30A100FF30A200FF3076
:10175800A3007408A4007508A5007608A6007708F9
:10176800A7007008A4027108031C710FBC2BBD2BC5
:10177800A5027208031C720FC22BC32BA6027308A2
:10178800031C730FC82BC92BA7022408A007250820
:101798000318250FD02BD12BA10726080318260FD5
:1017A800D62BD72BA20727080318270AA307230835
:1017B800F3002208F2002108F1002008F000803030
:1017C800F8067B03FF3AFB007B08031DEC2BED2B8F
:1017D8000A2C0130F007003003180130F1070030FF
:1017E80003180130F207003003180130F3070A2C00
:1017F8007408F0027508031C750FF1027608031CC3
:10180800760FF2027708031C770FF302730872044D
:1018180071047004031D112C122C412C7B08031D2C
:10182800162C172C412C0030F3000030F200003049
:10183800F1000030F000BD2C013083120313A0002A
:101848000310F00DF10DF20DF30DA00B242CFB1F6E
:101858002E2C2F2C302C70147B1C332C342C382C31
:1018680003147B0DFB003A2C0310FB0D7A080319B7
:101878003E2C3F2C412C0130FA02F21F442C452CFF
:10188800202CF901FB1F492C4A2C582C7B087F3946
:1018980003194F2C502C532C0130F900582C701C74
:1018A800562C572C582C502C790803195C2C5D2C7D
:1018B800912C0130F007003003180130F107003097
:1018C80003180130F207003003180130F307731CC6
:1018D8006E2C6F2C912C700883120313A0007108D2
:1018E800A1007208A2007308A3000130A400230D10
:1018F800A30CA20CA10CA00CA40B7B2C2308F300B6
:101908002208F2002108F1002008F0007A0A0319E1
:101918008E2C8F2C912C0130FA077A0A0319952CFA
:10192800962C9B2C7A08031D9A2C9B2CA92C0030F2
:10193800F3000030F2000030F1000030F0007A08C7
:10194800031DA72CA82CA92CF8017A1CAC2CAD2CB3
:10195800AF2CF217B12C7F30F2057A0883120313EB
:10196800A0000310200CF300F81FBB2CBC2CBD2CCE
:10197800F3170800831203132308AD008030AD0568
:101988002308A8002807B300A21FCB2CCC2CCD2CF1
:10199800331433080319D12CD22CE12C330A031D3C
:1019A800D62CD72CDF2C0030A3000030A20000304A
:1019B800A1000030A000A217E92C0030A3000030DD
:1019C800A2000030A1000030A00027088039AD0631
:1019D8002708A8002807B200A61FF32CF42CF52C22
:1019E800321432080319F92CFA2C092D320A031D76
:1019F800FE2CFF2C072D0030A7000030A600003079
:101A0800A5000030A400A617112D0030A700003053
:101A1800A6000030A5000030A40032080319152DD7
:101A2800162D1B2D3308031D1A2D1B2D242D0030B8
:101A3800A3000030A2000030A1000030A000FF2F5A
:101A48002008F00026080A168A15BD260A128A15EB
:101A5800710883120313B9007008B8003808A80089
:101A6800A901AA01AB012B08B1002A08B000290876
:101A7800AF002808AE003908A800A901AA01AB01E7
:101A88002B08B7002A08B6002908B5002808B400B2
:101A98002108F00025080A168A15BD260A128A159B
:101AA800710883120313B9007008B8003808A80039
:101AB800A901AA01AB012808AE07290803110318D8
:101AC800013E0319682DAF072A0803110318013EC8
:101AD80003196F2DB0072B0803110318013E0319D2
:101AE800762DB1073908A800A901AA01AB01280879
:101AF800B407290803110318013E0319842DB507FB
:101B08002A0803110318013E03198B2DB6072B0869
:101B180003110318013E0319922DB7072208F0009C
:101B280024080A168A15BD260A128A157108831216
:101B38000313B9007008B8003808A800A901AA0161
:101B4800AB012808AE07290803110318013E031941
:101B5800AE2DAF072A0803110318013E0319B52D4E
:101B6800B0072B0803110318013E0319BC2DB10758
:101B78003908A800A901AA01AB012808B407290857
:101B880003110318013E0319CA2DB5072A080311CA
:101B98000318013E0319D12DB6072B0803110318AA
:101BA800013E0319D82DB7070830A8000310AE0D61
:101BB800AF0DB00DB10DA80BDA2D2108F0002408E7
:101BC8000A168A15BD260A128A157108831203138C
:101BD800B9007008B8003808A8003908A900AA0197
:101BE800AB012808AE07290803110318013E0319A1
:101BF800FE2DAF072A0803110318013E0319052E0D
:101C0800B0072B0803110318013E03190C2EB10766
:101C18002008F00025080A168A15BD260A128A151A
:101C2800710883120313B9007008B8003808A800B7
:101C38003908A900AA01AB012808AE072908031131
:101C48000318013E0319292EAF072A0803110318A8
:101C5800013E0319302EB0072B0803110318013E6B
:101C68000319372EB1070830A8000310AE0DAF0DC9
:101C7800B00DB10DA80B392E2008F00024080A1663
:101C88008A15BD260A128A15710883120313B90032
:101C98007008B8003808A8003908A900AA01AB01E3
:101CA8002808AE07290803110318013E03195D2E01
:101CB800AF072A0803110318013E0319642EB00761
:101CC8002B0803110318013E03196B2EB1072108D5
:101CD800F00026080A168A15BD260A128A15710808
:101CE80083120313B9007008B8003808A80039082F
:101CF800A900AA01AB012808B40729080311031891
:101D0800013E0319882EB5072A0803110318013E5E
:101D180003198F2EB6072B0803110318013E031968
:101D2800962EB7072208F00025080A168A15BD2640
:101D38000A128A15710883120313B9007008B800D3
:101D48003808A8003908A900AA01AB012808B40777
:101D5800290803110318013E0319B32EB5072A08F1
:101D680003110318013E0319BA2EB6072B080311F5
:101D78000318013E0319C12EB7072208F0002608F0
:101D88000A168A15BD260A128A15710883120313CA
:101D9800B9007008B8003808A8003908A900AA01D5
:101DA800AB0108300310A80DA90DAA0DAB0DFF3E1D
:101DB800031DD62E2808B407290803110318013E6D
:101DC8000319E72EB5072A0803110318013E031962
:101DD800EE2EB6072B0803110318013E0319F52E42
:101DE800B7072E08A8002F08A9003008AA00310854
:101DF800AB0018300310AB0CAA0CA90CA80CFF3EC2
:101E0800031DFE2E2808B407290803110318013EF4
:101E180003190F2FB5072A0803110318013E0319E8
:101E2800162FB6072B0803110318013E03191D2F9F
:101E3800B7070830A8000310AE0DAF0DB00DB10DF7
:101E4800A80B1F2F33083207A800A901A90D2808DD
:101E5800823EB80029080318013EFF3EB900512F01
:101E68000130A8000310B40DB50DB60DB70DA80BC1
:101E7800362FB11F402F412F422F34140130A800B4
:101E88000310AE0DAF0DB00DB10DA80B442FFF30F0
:101E9800B8070318B90AFF30B907B61F542F552FD2
:101EA800342FB201B11F592F5A2F762FFF302E052C
:101EB800A800FF302F05A900FF303005AA007F30A9
:101EC8003105AB002B082A042904280403196D2FB7
:101ED8006E2F712F0130B200762F341C742F752F9E
:101EE800762F6E2F320803197A2F7B2FAC2F0130F3
:101EF800B407003003180130B5070030031801306B
:101F0800B607003003180130B707371C8C2F8D2F08
:101F1800AC2F3408A8003508A9003608AA003708ED
:101F2800AB000130AC002B0DAB0CAA0CA90CA80C13
:101F3800AC0B972F2B08B7002A08B6002908B50064
:101F48002808B4000130B8070318B90A0030B907E7
:101F58003908803AFF0080307F02031DB52FFF301B
:101F68003802031CB82FB92FC42F7F3083120313F4
:101F7800B7008030B6000030B5000030B400F52F4F
:101F8800831203133908803AFF0080307F02031D53
:101F9800CF2F013038020318D22FD32FDF2F003074
:101FA80083120313B7000030B6000030B5000030CC
:101FB800B400AD01F52F831203133808B300FF30C6
:101FC800B405FF30B5057F30B6050030B705331CC2
:101FD800EE2FEF2FF02FB6173308A8000310280CA8
:101FE800B7002D08B7043708A3003608A200350843
:101FF800A1003408A000080073087204710470047A
:102008000319072808280A288030F3060800E33057
:1020180083160317A8008316031361088316031792
:10202800A9000130AA00AB01AC01B201B301A9308B
:1020380083160313DD000130DE006208DF00A830DC
:10204800E0000A168A15E4260A168A118316031771
:102058002B08831603136107E700670884008317BA
:1020680080010800F901FA0176088400831300084A
:1020780084000A168A1500200A168A112A3A031DB6
:102088004628472875287608840001308007770895
:10209800840083170008FF00023080077F0884004F
:1020A80083130008F900840A0008FA0086287A08D1
:1020B800F1007908F0000A30F2000030F3000A1647
:1020C8008A1598260A168A1178087007F9000030D0
:1020D800031801307107FA00760884000130831371
:1020E800800776088400000884000A168A150020F4
:1020F8000A168A11D03EF8000A307802031C852897
:1021080086285B287A08F7007908F6000800831605
:1021180003136F1C902891289E28831203132A0802
:10212800A0002808A1002908A2000A168A150D2770
:102138000A168A1183120313AC1FA328A428A62801
:10214800AB01AC01AD01AE01C0282030F000003079
:10215800F100831203132808F2002908F3000A1675
:102168008A11E2200A168A11013083120313AD077F
:102178000318AE0A0030AE072E08803AFD002C087E
:10218800803A7D02031DCA282B082D02031CCD2886
:10219800CE28A928831603136F18D328D428E1283A
:1021A800831203132A08A0002808A1002908A20006
:1021B8000A168A150D270A168A1108007208730470
:1021C8000319E728E828EE2872087304031DED2890
:1021D800EE28F52870080A128A1104200A168A11B6
:1021E8007B297208093EF40073080318013E003E7B
:1021F800F500740884008317751C83130008F60023
:10220800840A0008F7007608770403190C290D29B9
:102218003F297208093EF40073080318013E003E86
:10222800F500740884008317751C83130008F600F2
:10223800840A0008F7007208023EF80073080318C1
:10224800013E003EF900780884008317791C831347
:102258000008FA00840A0008FB007B08803AFC00AA
:102268007708803A7C02031D3B2976087A02031816
:102278003E293F297B29720884008317731C831326
:102288000008F400840A0008F5007208023EF6000F
:1022980073080318013E003EF70076088400831790
:1022A800771C831300087407F9007508F8000318F1
:1022B800F80A801F6029F8037808FA007908840072
:1022C80083177A1C8313700880007208023EF4009A
:1022D80073080318013E003EF50074088400831754
:1022E800751C831301308007840A0318800A0800CC
:1022F8000030831203133A05C20000303B05C300C7
:1023080080303C05C4007F303D05C50045084404C5
:1023180043044204031D912992299A290030BD00E3
:102328000030BC000030BB000030BA0000303E0571
:10233800C20000303F05C30080304005C4007F3034
:102348004105C5004508440443044204031DAD2962
:10235800AE29B6290030C1000030C0000030BF00EF
:102368000030BE00BD1FB929BA29DE290030C200DD
:102378000030C3000030C4008030C5003A08C202F3
:102388003B08031C3B0FC929CA29C3023C08031C8C
:102398003C0FCF29D029C4023D08031C3D0FD52985
:1023A800D629C5024508BD004408BC004308BB0047
:1023B8004208BA00C11FE129E229062A0030C200FA
:1023C8000030C3000030C4008030C5003E08C2029F
:1023D8003F08031C3F0FF129F229C3024008031CE0
:1023E800400FF729F829C4024108031C410FFD29B1
:1023F800FE29C5024508C1004408C0004308BF00C3
:102408004208BE008030BD068030C10641083D024A
:10241800031D182A40083C02031D182A3F083B02E6
:10242800031D182A3E083A0203181B2A1C2A1E2AD2
:1024380003101F2A0314080083160313EE1B252A12
:10244800262A282AFD30EF05EE1F2B2A2C2A332AAC
:10245800013083120313B3000030B4003D2A6E0824
:1024680083120313B400831603136D088312031336
:10247800B300831603136C0883120313B600831684
:1024880003136B0883120313B5004F30B7000030F5
:10249800B80083120317DF018E2AFF30831203135B
:1024A800B7070318B80AFF30B8073708103E84008A
:1024B8000A30F0000030F1003208F3003108F20071
:1024C8000A168A1538270A168A117008303E8317AB
:1024D8008000FF3083120313B3070318B40AFF30D8
:1024E800B407FF30B5070318B60AFF30B6070A303D
:1024F800F0000030F1003208F3003108F2000A164B
:102508008A1570270A168A11710883120313B200FC
:102518007008B1000313370838040319942A952A60
:10252800BD2A31083204031D9A2A9B2A512A3408ED
:10253800803AFF0080307F02031DA42A0130330255
:102548000318A72AA82A512A831203133608803AA7
:10255800FF0080307F02031DB32A01303502031CBF
:10256800B62AB72ABD2A83160313EF18BC2ABD2A38
:10257800512A831203132F08A8003008A90037082E
:10258800103EAA003608AC003508AB000A168A11BE
:102598008B200A168A110800F80078080319D52A32
:1025A800D62AEA2AF31FD92ADA2AEA2A7009FA006F
:1025B8007109FB007209FC007309FD00FA0A03198E
:1025C800FB0A0319FC0A0319FD0AF22A7308FD0025
:1025D8007208FC007108FB007008FA0073087204A6
:1025E80071047004031DF92AFA2A032B0030F30042
:1025F8000030F2000030F1000030F000832B9630FC
:10260800F900112B0130F90701300310FD0CFC0C07
:10261800FB0CFA0CFF3E031D092BFE307D05031D44
:10262800162B172B062B312B0130F9070130FA072F
:10263800003003180130FB07003003180130FC0795
:10264800003003180130FD0701300310FD0CFC0CAD
:10265800FB0CFA0CFF3E031D292BFF307D05031DE3
:10266800362B372B182B432B0130F9020130F4009D
:102678000310FA0DFB0DFC0DFD0DF40B3C2BFC1BA0
:10268800462B472B4D2B0230790203184C2B4D2B30
:10269800382B7918502B512B592BFF30FA05FF3066
:1026A800FB057F30FC05FF30FD050310F90C7908A8
:1026B800F400F501F601F70118300310F40DF50DDB
:1026C800F60DF70DFF3E031D612B7408FA0475081B
:1026D800FB047608FC047708FD0478080319752BB9
:1026E800762B7B2BF31F792B7A2B7B2BFD177D0801
:1026F800F3007C08F2007B08F1007A08F00008007B
:102708008316031389018801FF3085000A168A158C
:1027180045260A168A110A168A15D9250A168A1113
:102728000A168A15E2250A168A11710883160317F4
:10273800B9007008B800443083120313BD007F301D
:10274800BC00C030BB000030BA004030A300A0304D
:10275800A2000030A1000030A0008316031738083B
:10276800F0003908F100F201F30100300A168A116D
:10277800D0220A168A11730883120313A70072085D
:10278800A6007108A5007008A4000A128A15BE24C4
:102798000A168A11831203132308C1002208C000F5
:1027A8002108BF002008BE000A128A1598200A16C0
:1027B8008A11831203133D0883160317B700831287
:1027C80003133C0883160317B600831203133B0850
:1027D80083160317B500831203133A0883160317E9
:1027E800B40080300A168A15F4250A168A11983022
:1027F80083160313E1000B30E20083160317390830
:1028080083160313E400831603173808831603138B
:10281800E3000A168A110B200A168A119830F30071
:102828000A168A151C260A168A11C0300A168A1535
:10283800F4250A168A11983083160313E100013033
:10284800E20083160317370883160313E60083167E
:102858000317360883160313E50083160317350894
:1028680083160313E400831603173408831603132F
:10287800E3000A168A110B200A168A119830F30011
:102888000A168A151C260A168A110D308316031398
:10289800EA00AF30E900B530E800E80B512CE90B4D
:1028A800512CEA0B512C582C942B0A128A1100280F
:1028B80083160313C501831203136D0883160313CC
:1028C800C900831203136C0883160313C80083120C
:1028D80003136B0883160313C700831203136A08D4
:1028E80083160313C600490883120313BD00831619
:1028F8000313480883120313BC0083160313470805
:1029080083120313BB0083160313460883120313B1
:10291800BA000030C1000030C0000030BF000030F5
:10292800BE000A168A117C210A168A1103189D2CEA
:102938009E2CB92C013083160313C5004908F300F7
:102948004808F2004708F1004608F0000A168A1104
:1029580000200A168A11730883160313C900720827
:10296800C8007108C7007008C60083160313CA019F
:10297800CB016C08B6006B08B50045080319C52CD7
:10298800C62CD62C4508031DCA2CCB2CD02C2B309A
:10299800AA000030AB00D42C2D30AA000030AB00C8
:1029A8002A08C5004908F3004808F2004708F10062
:1029B8004608F0000A128A1105200A168A117003C7
:1029C8007104031DE82CE92C2E2D831603134508EA
:1029D8000319EF2CF02C002D4508831203179000E3
:1029E800FF3083160313B5070318B60AFF30B6077E
:1029F8000130CA000030CB004A08103EF000153004
:102A0800F1000A168A155E260A168A11FD30831609
:102A18000313B5070318B60AFF30B607831203136A
:102A28006808A8006908A9001030AA0083160313D3
:102A3800360883120313AC00831603133508831278
:102A48000313AB000A168A118B200A168A110A1280
:102A58008A11E32F831603134908F3004808F2008C
:102A68004708F1004608F0000A128A1105200A16E4
:102A78008A1170087104031D422D452D0A128A110E
:102A8800922883160313450803194B2D4C2D5C2DF2
:102A98004508831203179000FF3083160313B50708
:102AA8000318B60AFF30B6070130CA000030CB0061
:102AB8004A08103EF0001930F1000A168A155E2601
:102AC8000A168A110A2D8316031713088312031393
:102AD800E70083160317120883120313E600831610
:102AE8000317110883120313E50083160317100850
:102AF80083120313E4005708E7005608E600550858
:102B0800E5005408E4006408D8006508D9006608A0
:102B1800DA006708DB0017300310DB0CDA0CD90C7D
:102B2800D80CFF3E031D902DFF305805DC00003007
:102B38005905DD005C08813EE2005D080318013E8E
:102B4800FF3EE3006308803AFF0080307F02031DE8
:102B5800AF2D17306202031CB22DB32DB42D752E84
:102B680083120313E31BB92DBA2D2A2E620AFF0024
:102B7800FF30D800FF30D9007F30DA000030DB00AA
:102B8800CA2D5B0DDB0CDA0CD90CD80CFF0BC52D4C
:102B98005B08E1005A08E0005908DF005808DE0029
:102BA8005E086405D8005F086505D90060086605F9
:102BB800DA0061086705DB005B085A045904580409
:102BC800031DE72DE82DE92DB32D6408D80065080D
:102BD800D9006608DA006708DB001F300310DB0C39
:102BE800DA0CD90CD80CFF3E031DF22D5B085A04F1
:102BF800590458040319012E022E192E5E08E40701
:102C08005F0803110318013E03190B2EE50760083E
:102C180003110318013E0319122EE6076108031178
:102C28000318013E0319192EE7075E09D8005F094A
:102C3800D9006009DA006109DB005808E405590881
:102C4800E5055A08E6055B08E7056D2E6408D80017
:102C58006508D9006608DA006708DB001F30031032
:102C6800DB0CDA0CD90CD80CFF3E031D332E5B08A5
:102C78005A0459045804031D422E432E4C2E00308A
:102C8800E7000030E6000030E5000030E4006D2E7B
:102C98006408D8006508D9006608DA006708DB0010
:102CA80001300310D80DD90DDA0DDB0DFF3E031DE1
:102CB800552E5B085A04590458040319642E652ECE
:102CC8006D2EBF30E7008030E6000030E5000030B0
:102CD800E4006708D7006608D6006508D5006408D0
:102CE800D4000800831603135208840083130008D5
:102CF80084000A168A1500200A168A11253A031D2F
:102D0800862E872EE62F5208840001308007EB01BB
:102D1800EC010030EF00FF30ED00FF30EE00D6018F
:102D2800AB2EEF145208840001308007AB2E01301F
:102D3800D600AB2E52088400000884000A168A15B3
:102D480000200A168A11303A0319952E9B2E560830
:102D58000319AF2EB02E9E2E5208F6005308F70026
:102D68000A168A1136200A168A1177088316031361
:102D7800EC007608EB00EC1FC22EC32EC92E6F1490
:102D8800EB09EC09EB0A0319EC0A520884008313D7
:102D9800000884000A168A1500200A168A112E3A9D
:102DA800031DD72ED82EEB2E520884000130800741
:102DB8005208F6005308F7000A168A1136200A1638
:102DC8008A11770883160313EE007608ED0052087F
:102DD800840083130008DC005C0884000A168A1546
:102DE80000200A168A11753A031DFB2EFC2E382F77
:102DF8005308840083170008FF00023080077F080B
:102E0800840083130008D700840A0008D8005208F9
:102E180084005C08013E80002D2F500883120313A4
:102E2800AF0083160313510883120313B0008316EF
:102E38000313580883120313B200831603135708A9
:102E480083120313B1000A168A1120220A168A1166
:102E5800FF2F5C0884000A168A1500200A168A11BA
:102E6800753A0319112F382F520884000008DC0026
:102E78005C0884000A168A1500200A168A11DB00ED
:102E88004D2F0130DC07582F6C30DB00582FDB0149
:102E9800582F5B084C3A0319452F2A3A0319482F33
:102EA8000A3A0319452F4B2F5C0884000A168A1525
:102EB80000200A168A11663A031D632F642FDE2F3D
:102EC800912F5308840083170008FF0004308007FF
:102ED8007F08840083130008D700840A0008D800FC
:102EE800840A0008D900840A0008DA00992F5308D8
:102EF800840083170008FF00043080077F088400DF
:102F080083130008D700840A0008D800840A000840
:102F1800D900840A0008DA00992F5B084C3A031993
:102F28007B2F203A0319652F992F520884005C08DB
:102F3800013E8000D32F500883120313E800831644
:102F48000313510883120313E900831603135A0865
:102F580083120313ED008316031359088312031316
:102F6800EC0083160313580883120313EB0083162F
:102F78000313570883120313EA00831603135C082C
:102F880084000A168A1500200A168A118312031370
:102F9800EE000A168A115C240A168A11FF2F5C08B3
:102FA80084000A168A1500200A168A11663A03193F
:102FB8009F2FDE2F831603135208840001308313DA
:102FC8008007FF2F52088400000884000A168A151B
:102FD80000200A168A11D400D5015408F0005508BB
:102FE800F1005008F2005108F3000A168A11E22095
:102FF8000A168A11DE2F080018308A000408840A8D
:103008008207003456343A34203425342E3432348E
:1030180066342034563400344134443443343A342A
:1030280020342534303434347534003469346E3403
:0C303800663400346E3461346E340034B1
:103BA20064008001840A0406031900340406D22D3D
:103BB2000630831603139F000D30831203139F00F8
:103BC20008002130F200F20BE42D831203131F15BB
:103BD2001F19EC2DED2DE92D1E08F100831603139C
:103BE2001E08F0000800F200720883120313880016
:103BF200091089142130F1007630F000F00BFF2D0E
:103C0200F10BFF2D00008312031389100800F2004C
:103C12007208831203138800091489142130F100F9
:103C22007630F000F00B132EF10B132E00008312EE
:103C3200031389100800272E7308840000080A164F
:103C42008A1508260A168A150130F30773088400BC
:103C520083170008031D2E2E2F2E1D2E0800F31B86
:103C6200332E342E352E442E7009F0007109F100E6
:103C72007209F2007309F300F00A0319F10A031939
:103C8200F20A0319F30A080038300A168A15F425D5
:103C92000A168A1506300A168A15F4250A168A1596
:103CA2000C300A168A15F4250A168A1501300A16EE
:103CB2008A15F4250A168A1508007008F2000130E8
:103CC200F107FF30710784000A168A1500200A16D0
:103CD2008A15FF007208F20A84007F0883178000A9
:103CE2000008031D752E762E602E08007108F6005E
:103CF2007008F500892E7608840083170008F40006
:103D02000130F60775088400740880000130F50759
:103D12000130F2020030031CF303F302720A031DA6
:103D2200962E730A031D962E972E7C2E0800F40100
:103D3200F501701C9D2E9E2EA42E7208F407031806
:103D4200F50A7308F50701300310F20DF30DFF3E7B
:103D5200031DA52E01300310F10CF00CFF3E031DD4
:103D6200AC2E70087104031DB72EB82E9A2E75085A
:103D7200F1007408F0000800F800F401F501700881
:103D8200F200F3017208F6007308F700781CCA2EDD
:103D9200CB2ED12E7608F4070318F50A7708F5071B
:103DA20001300310F60DF70DFF3E031DD22E031056
:103DB200F80C7808031DDE2EDF2EC72E7508F100E1
:103DC2007408F0000800831603135F0883120313BC
:103DD200EF00FA2E831603135D08D0005E08D100AF
:103DE2006F30D2006008D3000A168A1176260A16AE
:103DF2008A15831203136F0884000A168A1500209D
:103E02000A168A15003A031D072F082FEB2E831678
:103E12000313DD01DE01080083120313A601A701CB
:103E22002A2F2508A300A4012308F0002408F1008A
:103E32002108F2002208F3000A168A11E2200A166B
:103E42008A15013083120313A6070318A70A00304C
:103E5200A70726082007A300230884008317000869
:103E6200A5002508031D362F372F122F08007008D2
:103E7200710403193D2F3E2F6B2F0130F4004A2F9E
:103E820001300310F00DF10DFF3E031D422F0130F2
:103E9200F407F11F4D2F4E2F412F71087302031D9E
:103EA200542F70087202031C572F582F5E2F700870
:103EB200F2027108031CF303F30201300310F10C48
:103EC200F00CFF3E031D5F2F0130F402031D6A2F29
:103ED2006B2F4E2F7308F1007208F0000800F401F6
:103EE200F501700871040319772F782FAD2F013077
:103EF200F600842F01300310F00DF10DFF3E031D7B
:103F02007C2F0130F607F11F872F882F7B2F01307E
:103F12000310F40DF50DFF3E031D892F7108730286
:103F2200031D952F70087202031C982F992FA02F42
:103F32007008F2027108031CF303F30274140130D7
:103F42000310F10CF00CFF3E031DA12F0130F6020D
:103F5200031DAC2FAD2F882F7508F1007408F000F7
:103F6200080000307005F80000307105F90080305B
:103F72007205FA007F307305FB007B087A0479042E
:103F82007804031DC52FC62FCE2F0030F30000305A
:103F9200F2000030F1000030F00000307405F8004B
:103FA20000307505F90080307605FA007F3077051C
:103FB200FB007B087A0479047804031DE12FE22FC9
:103FC200EA2F0030F7000030F6000030F500003034
:103FD200F40077087306031DF82F76087206031D96
:103FE200F82F75087106031DF82F7408700603195F
:0E3FF200FB2FFC2FFE2F0310FF2F03140800DF
:02400E003A3D39
:00000001FF
