:100000000A128A11FC2F00308A000408840A820731
:1000100000343034313432343334343435343634DB
:100020003734383439344134423443344434453439
:1000300046345434653463346C346134203444348D
:10004000693467342E3400344434693467342E34D0
:0E00500020345434653463346C34613400342D
:100B4000F03083160313870081130800F00070084B
:100B5000831203178D00831603178C130C140000E7
:100B6000831203170C08080001300A128A11152697
:100B70000A128A110D30F400FB30F300F30BBE2D86
:100B8000F40BBE2DC32D0800F1007108831203176A
:100B90008D0070088C00831603178C130C158B13B3
:100BA00055308D00AA308D008C1400008316031779
:100BB0000C118B170800EA2D730884000A128A11A1
:100BC00003200A128A110A128A114B260A128A116C
:100BD0000130F307730884000A128A1103200A12F5
:100BE0008A11003A031DF52DF62DDC2D0800F400C6
:100BF00074030319FC2DFD2D052E7308BF3EF5006F
:100C0000003003180130F6000C2E73087F3EF5000B
:100C1000003003180130F6007508F70077080A1253
:100C20008A1115260A128A110800F2008312031392
:100C30000910F0307205F00008080F3970048800C0
:100C400089141030F000F00B232E000083120313E0
:100C500089107208F00004300310F00DFF3E031DF0
:100C60002C2EF0307005F10008080F39710488004F
:100C700089141030F000F00B3B2E00008312031398
:100C800089100D30F100FB30F000F00B452EF10B18
:100C9000452E4A2E0800F200831203130914F03087
:100CA0007205F00008080F397004880089141030AC
:100CB000F000F00B592E0000831203138910720804
:100CC000F00004300310F00DFF3E031D622EF030E3
:100CD0007005F10008080F3971048800891410307C
:100CE000F000F00B712E00008312031389100D30F9
:100CF000F100FB30F000F00B7B2EF10B7B2E802EF1
:100D00000800831603138813081388120812891029
:100D100009108230F400DD30F300F30B8D2EF40B5C
:100D20008D2E922E03300A128A1115260A128A116C
:100D30002130F4007630F300F30B9C2EF40B9C2E44
:100D4000000003300A128A1115260A128A11C730D0
:100D5000F300AA2EF30BA92EAD2EAE2E03300A12ED
:100D60008A1115260A128A11C730F300B72EF30B29
:100D7000B62EBA2EBB2E02300A128A1115260A127E
:100D80008A1128300A128A1115260A128A110C308B
:100D90000A128A1115260A128A1106300A128A11BD
:100DA00015260A128A1101300A128A1115260A1212
:100DB0008A110D30F400FB30F300F30BDD2EF40B41
:100DC000DD2EE22E0800F10104307102031CE92E31
:100DD000EA2EEB2EE32E0130F000710AF12E031003
:100DE000F00DFF3E031DEF2E7008FF3A8312031330
:100DF00087005330F000F00BFB2E8312031306180C
:100E0000022F032F192F061C062F072F032F7108FF
:100E1000F00001300310F00DFF3E031D0A2F0310F8
:100E2000700D013E84000A128A1103200A128A11F1
:100E30006A2F86181C2F1D2F332F861C202F212F41
:100E40001D2F7108F00001300310F00DFF3E031D4F
:100E5000242F0310700D023E84000A128A11032011
:100E60000A128A116A2F0619362F372F4D2F061DA9
:100E70003A2F3B2F372F7108F00001300310F00D8F
:100E8000FF3E031D3E2F0310700D033E84000A1227
:100E90008A1103200A128A116A2F8619502F512FA6
:100EA000672F861D542F552F512F7108F0000130E8
:100EB0000310F00DFF3E031D582F0310700D043E6C
:100EC00084000A128A1103200A128A116A2F013043
:100ED000F107E42E0800FB010A128A1181260A128A
:100EE0008A110A128A11A0250A128A11F301F30A43
:100EF00001300A128A11F7250A128A111C30F300F8
:100F00000A128A11DB250A128A110A128A11E326B3
:100F10000A128A11FC00F301F30A02300A128A1144
:100F2000F7250A128A117C080A128A114B260A1226
:100F30008A1146307C06031D9E2F9F2FBB2F7B08F6
:100F40000319A32FA42FB52F7B08F00000300A123D
:100F50008A11C4250A128A114130F900EE30F800D6
:100F6000F80BB02FF90BB02F00000A128A11B4252C
:100F70000A128A11762F45307C06031DC02FC12F1F
:100F8000F62F00300A128A11A6250A128A11FA00D9
:100F90000A128A11B4250A128A11F301F30A0130E8
:100FA0000A128A11F7250A128A111130F3000A1267
:100FB0008A11DB250A128A11F301F30A02300A12A0
:100FC0008A11F7250A128A117A080A128A114B2609
:100FD0000A128A110A128A11E3260A128A1145306E
:100FE0007C060319F42FF52FF62FB52F7C08FB0094
:100FF000762F0A128A11002883010A128A116B2F98
:02400E00723D01
:00000001FF
