:060000000A128A11E22F32
:100EE60009340C3406340334831603138801FF30A7
:100EF60086008312031388010130F5008312031361
:100F06000618862F872FAB2F7503031D8B2F8C2F6B
:100F1600AB2F0230F2004530F100A930F000F00BA3
:100F2600922FF10B922FF20B922F992F831203130C
:100F360006189E2F9F2FAB2F7A080319A32FA52FD4
:100F46000130A62F0030FA00061CAA2FAB2FA72FC0
:100F560006080139F5007A03031DB22FB32FB92F06
:100F66007B08013EFB000330FB05CC2F7B080319F1
:100F7600BD2FBE2FC62F7B08FF3EF300FF300318A0
:100F86000030F400CA2F0330F3000030F400730879
:100F9600FB007B08763E8400000888000630F200DD
:100FA6001330F100AD30F000F00BD72FF10BD72F37
:100FB600F20BD72FDE2F812F0A128A1100280A1270
:100FC6008A1173270A128A11F6000A128A117427E7
:100FD6000A128A11F7000A128A1175270A128A1153
:100FE600F8000A128A1176270A128A11F900FA0104
:0A0FF600FB0183010A128A11772F14
:02400E003A3D39
:00000001FF
