:100000000A128A11EB2FFF1B0D2883137F18831709
:100010000008840A0319FF0A080000308A00040857
:10002000840A82070034563465346C346F34633488
:100030006934643461346434653473342034643432
:1000400069346734693474346134643461347334CA
:100050003A3420340034563465346C346F346334AD
:100060006934643461346434653420346134743404
:10007000753461346C343A342034253464340D34AE
:040080000A3400340A
:10073C00080064008001840A0406031900340406CE
:10074C00A02BFF3083160313920083120313950121
:10075C000C309700043092000800F000831603134D
:10076C00981CB92BBA2BB42B700883120313990065
:10077C000800F0007008831203178D00831603170E
:10078C008C130C14831203170C0808008316031324
:10079C000717871781309900181518128312031345
:1007AC009817181318128316031398160800F71BC2
:1007BC00E02BE12BE22BED2B7609F8007709F90001
:1007CC00F80A0319F90A7808F6007908F700080006
:1007DC00F1007108831203178D0070088C008316CA
:1007EC0003178C130C158B1355308D00AA308D000C
:1007FC008C148B170C1108000130F1008030F200C2
:10080C000A128A11A7240A128A115F30F1000030F3
:10081C00F2000A128A11A7240A128A112D30F10053
:10082C008030F2000A128A11A7240A128A110800D9
:10083C00443083120313B1001930B2006908C200AE
:10084C00C3014208B3004308B4000A128A113A24C7
:10085C000A128A114430F1000030F2000A128A1197
:10086C00A7240A128A110800333083120313B6002E
:10087C003108B7000030B800B901BA01C001C1019C
:10088C003730AD000030AE003208AF003630B0006B
:10089C000A128A115D240A128A1183120313390871
:1008AC003107B500350884008313800108008312DA
:1008BC0003132F08FD00712C831203132D08A000C5
:1008CC002E08A1007D30A2003008A3000A128A1164
:1008DC0005270A128A117D0884000A128A110D203C
:1008EC000A128A11003A031D7C2C7D2C622C831277
:1008FC000313AD01AE010800F401F501701C872C47
:10090C00882C8E2C7208F4070318F50A7308F50767
:10091C0001300310F20DF30DFF3E031D8F2C01303F
:10092C000310F10CF00CFF3E031D962C70087104A3
:10093C00031DA12CA22C842C7508F1007408F00066
:10094C000800BC2C7208FF00710884000A128A117E
:10095C0003200A128A110A128A11B3230A128A116D
:10096C000130F1070318F20A0030F2077208831203
:10097C000313FF00710884000A128A1103200A1263
:10098C008A11003A031DCB2CCC2CA82C0800F800A3
:10099C007808F600F7017608F0007708F1001930B6
:1009AC00F2000030F3000A128A1182240A128A1112
:1009BC007108FA007008F9007A08F7007908F60057
:1009CC000310F70CF60C0310F70CF60C76088312D8
:1009DC000313950079080339F60004300310F60D63
:1009EC00FF3E031DF42C1708CF397604970008003E
:1009FC00FF30F000831203130810881408158815B3
:100A0C000618092D0A2D0B2DF00186180E2D0F2D11
:100A1C00112D0130F0000619142D152D172D023053
:100A2C00F00086191A2D1B2D1D2D0330F000081413
:100A3C008810081588150618242D252D272D04300F
:100A4C00F00086182A2D2B2D2D2D0530F0000619BF
:100A5C00302D312D332D0630F0008619362D372DE3
:100A6C00392D0730F0000814881408118815061861
:100A7C00402D412D432D0830F0008618462D472D72
:100A8C00492D0930F00070080800F501F31F4F2DB7
:100A9C00502D572DF209F309F20A0319F30A01300C
:100AAC00F500F11F5A2D5B2D602DF009F109F00AAC
:100ABC000319F10A700871040319652D662D932D25
:100ACC000130F400722D01300310F00DF10DFF3EDA
:100ADC00031D6A2D0130F407F11F752D762D692D3C
:100AEC0071087302031D7C2D70087202031C7F2D8C
:100AFC00802D862D7008F2027108031CF303F3029B
:100B0C0001300310F10CF00CFF3E031D872D01305A
:100B1C00F402031D922D932D762D75080319972D34
:100B2C00982D9D2DF209F309F20A0319F30A7308A3
:100B3C00F1007208F0000800F501F11FA62DA72D99
:100B4C00AE2DF009F109F00A0319F10A0130F50094
:100B5C00F31FB12DB22DB92DF209F309F20A0319C5
:100B6C00F30A0130F506F601F70170087104031958
:100B7C00C02DC12DF62D0130F400CD2D0130031008
:100B8C00F00DF10DFF3E031DC52D0130F407F11FD3
:100B9C00D02DD12DC42D01300310F60DF70DFF3ED5
:100BAC00031DD22D71087302031DDE2D7008720215
:100BBC00031CE12DE22DE92D7008F2027108031CD3
:100BCC00F303F302761401300310F10CF00CFF3E2A
:100BDC00031DEA2D0130F402031DF52DF62DD12D48
:100BEC0075080319FA2DFB2D002EF609F709F60AE4
:100BFC000319F70A7708F1007608F0000800F030C6
:100C0C00831603138800FF30860007110A128A111D
:100C1C00A7230A128A110A128A11CC230A128A11EA
:100C2C0000300A128A11BF230A128A11831203138D
:100C3C00E9000B306902031C242E252E262EE90117
:100C4C0069080A128A11CD240A128A110A128A1111
:100C5C001E240A128A110A128A11FE240A128A11FF
:100C6C0083120313D800580A03193D2E3E2E312E41
:100C7C005E08031D422E432E4B2E5808F000003008
:100C8C000A128A11EE230A128A11831203135E08C8
:100C9C005F3E84005808303E831380000130DE072D
:100CAC005E085F3E840080010A128A1102240A1237
:100CBC008A118312031358080A128A11CD240A12BE
:100CCC008A112C2E0A128A11002872087304031937
:100CDC00702E712E772E72087304031D762E772ECC
:100CEC007E2E70080A128A119E230A128A11042F72
:100CFC007208093EF40073080318013E003EF5002B
:100D0C00740884008317751C83130008F600840A8A
:100D1C000008F700760877040319952E962EC82E36
:100D2C007208093EF40073080318013E003EF500FA
:100D3C00740884008317751C83130008F600840A5A
:100D4C000008F7007208023EF80073080318013E11
:100D5C00003EF900780884008317791C831300087F
:100D6C00FA00840A0008FB007B08803AFC00770834
:100D7C00803A7C02031DC42E76087A020318C72E13
:100D8C00C82E042F720884008317731C8313000869
:100D9C00F400840A0008F5007208023EF60073089D
:100DAC000318013E003EF700760884008317771C79
:100DBC00831300087407F9007508F8000318F80A83
:100DCC00801FE92EF8037808FA007908840083174D
:100DDC007A1C8313700880007208023EF4007308BA
:100DEC000318013E003EF500740884008317751C3F
:100DFC00831301308007840A0318800A08008312C9
:100E0C00031322088400000884000A128A110D20A2
:100E1C000A128A11253A031D142F152FD12F2208DF
:100E2C00840001308007D901DA010030DD00FF3089
:100E3C00DB00FF30DC00220884000008A700270834
:100E4C0084000A128A110D200A128A11643A0319BD
:100E5C00302F312F3D2F270884000A128A110D20C4
:100E6C000A128A11693A031D3C2F3D2FCA2F230801
:100E7C00840083130008FF00023080077F08840081
:100E8C000008A800840A0008A9002208840027088A
:100E9C00013E80002030AC00A91B552F572F01308C
:100EAC00582F0030A6000130AC022C08A03E840064
:100EBC000A30F0000030F1002908F3002808F20095
:100ECC000A128A114B250A128A117108F700700850
:100EDC00F6000A128A11DD230A128A117608303EB6
:100EEC00831380000A30F0000030F10083120313EA
:100EFC002908F3002808F2000A128A11A2250A1206
:100F0C008A11710883120313A9007008A80028081D
:100F1C0029040319922F932F982F2C08031D972F18
:100F2C00982F592F2C0803199C2F9D2FC32F26085F
:100F3C000319A12FA22FC32F0130AC022C08A03E05
:100F4C0084002D3083138000C32F2C08A03E840016
:100F5C0083130008A400A5012408F0002508F10063
:100F6C002008F2002108F3000A128A116B260A12DB
:100F7C008A11013083120313AC0720302C06031D99
:100F8C00C82FC92FAB2FEA2F83120313220884001A
:100F9C0001308007EA2F22088400000884000A121E
:100FAC008A110D200A128A11A400A5012408F00050
:100FBC002508F1002008F2002108F3000A128A111A
:100FCC006B260A128A11CA2F080083135930840029
:100FDC0069300A128A119F230A128A11A0308400E8
:100FEC00C0300A128A119F230A128A1183010A1235
:040FFC008A11052E23
:02400E003A3D39
:00000001FF
