:100000000A128A11FC2F00308A000408840A820731
:1000100000346134323430343934353439343234A4
:10002000303400345034613475346C346F340034FF
:100D98000230F2004530F100A930F000F00BD22EFD
:100DA800F10BD22EF20BD22ED92E0800F2007208C7
:100DB800831203138800091089142130F10076305A
:100DC800F000F00BE52EF10BE52E00008312031363
:100DD80089100800F20072088312031388000914AE
:100DE80089142130F1007630F000F00BF92EF10B68
:100DF800F92E0000831203138910080038300A12F4
:100E08008A11DA260A128A1106300A128A11DA269B
:100E18000A128A110C300A128A11DA260A128A1169
:100E280001300A128A11DA260A128A1108002A2FBA
:100E3800730884000A128A1103200A128A110A12FE
:100E48008A11EE260A128A110130F307730884000A
:100E58000A128A1103200A128A11003A031D352F3B
:100E6800362F1C2F0800F501F31F3B2F3C2F432F73
:100E7800F209F309F20A0319F30A0130F500F11F28
:100E8800462F472F4C2FF009F109F00A0319F10AF0
:100E9800700871040319512F522F7F2F0130F4006D
:100EA8005E2F01300310F00DF10DFF3E031D562F8C
:100EB8000130F407F11F612F622F552F710873025B
:100EC800031D682F70087202031C6B2F6C2F722F82
:100ED8007008F2027108031CF303F30201300310D7
:100EE800F10CF00CFF3E031D732F0130F402031DBB
:100EF8007E2F7F2F622F75080319832F842F892F48
:100F0800F209F309F20A0319F30A7308F1007208E7
:100F1800F000080083160313890188010130860058
:100F28000A128A1102270A128A11F6018312031380
:100F3800061C9F2FA02F9A2F0A128A11CC260A125C
:100F48008A1183120313061CAA2FAB2F9A2F033082
:100F5800F0000030F1007608013EF200003003187E
:100F68000130F3000A128A1137270A128A11700811
:100F7800F60001300A128A11DA260A128A11E72FBE
:100F880080300A128A11DA260A128A110A30F3000E
:100F98000A128A111B270A128A11F22FC0300A126C
:100FA8008A11DA260A128A110130F3000A128A110C
:100FB8001B270A128A11F22F01300A128A11DA2627
:100FC8000A128A11F22F7608013A0319C42F033A3C
:100FD8000319D22F013A0319E02FF22F83120313BA
:100FE8000618F72FF82FF22F9A2F0A128A110028C5
:080FF80083010A128A118E2FF9
:02400E00BA3DB9
:00000001FF
