:100000000A128A11EC2FFF1B0D2883137F18831708
:100010000008840A0319FF0A080000308A00040857
:10002000840A820700343F34203444346934733402
:1000300070346F34733469347434693476346F34A3
:10004000203465346E3463346F346E3474347234F7
:10005000613464346F3420346E346F34203465344A
:100060006E34643465347234653463346F343A34D6
:1000700020343034783400343F3420344E34653406
:100080006E34683475346D342034643469347334B8
:1000900070346F34733469347434693476346F3443
:1000A0002034493432344334203465346E3463347C
:1000B0006F346E3474347234613464346F34213488
:1000C0000D340A3400340D340A3449346E34693442
:1000D0006334693461346E3464346F34203465348D
:1000E0007334633461346E34653461346D34653433
:1000F0006E3474346F3420344934323443342E3403
:100100002E342E340D340A3400344A346F346134C2
:100110006F34203450346534643472346F340034B6
:1001200032343034393435343834383432340034BD
:0601300025347534003493
:1005540008008316031311141118B12AB22AAE2A03
:1005640008008316031311151119B92ABA2AB62AD9
:10057400080064008001840A040603190034040698
:10058400BC2AF000831203130C1EC92ACA2AC42AE7
:1005940070089900080024308316031398009030E3
:1005A400831203139800193083160313990008006B
:1005B400FA00F5017A080A128A112D230A128A1107
:1005C4000330F9009730F800F80BE62AF90BE62A15
:1005D400EB2A0800FA00F501F50A7A080A128A11D2
:1005E4002D230A128A110330F9009730F800F80B12
:1005F400F92AF90BF92AFE2A0800F0007008831280
:1006040003139300831603131418092B0A2B042BCA
:10061400111F0D2B0E2B132B0A128A11B3220A124F
:100624008A110800433083120313B0008630B100EE
:100634004208B3004108B2000A128A1184230A1244
:100644008A114330F1000030F2000A128A11CC23DF
:100654000A128A110800F7007508F1007708F600FD
:1006640004300310F60CFF3E031D332B76080A12E8
:100674008A110E250A128A117508F10077080F39BC
:100684000A128A110E250A128A110800572B7B08B8
:1006940084000A128A110D200A128A110A128A1180
:1006A400EC220A128A110130FB077B0884000A122B
:1006B4008A110D200A128A11003A031D622B632B42
:1006C400492B080083120313A000200303196B2B8A
:1006D4006C2B742B7B08BF3EA10000300318013043
:1006E400A2007B2B7B087F3EA10000300318013061
:1006F400A2002108A30023080A128A11DA220A128E
:100704008A110800323083120313B5003008B60092
:100714000030B700B801B901BF01C0013630AC00E8
:100724000030AD003108AE003530AF000A128A1136
:10073400A7230A128A118312031338083007B4005E
:1007440034088400831380010800831203132E08E5
:10075400FD00BB2B831203132C08A0002D08A1005D
:100764007D30A2002F08A3000A128A1128270A123A
:100774008A117D0884000A128A110D200A128A1136
:10078400003A031DC62BC72BAC2B83120313AC01F9
:10079400AD010800E12B7208FF00710884000A1201
:1007A4008A1103200A128A110A128A11C3220A1218
:1007B4008A110130F1070318F20A0030F2077208B7
:1007C40083120313FF00710884000A128A110320A4
:1007D4000A128A11003A031DF02BF12BCD2B0800CD
:1007E400F1007108031DF72BF82BFB2BF201F30129
:1007F400FF2B0830F2000030F3007208F4000A12F4
:100804008A11AB220A128A114E300A128A11FF226F
:100814000A128A1174080A128A11FF220A128A1112
:100824000A128A11B3220A128A110800283083128C
:1008340003139400831603139101831203132008F6
:10084400A4002108A5002208A6002308A70002305E
:100854000310A40DA50DA60DA70DFF3E031D2A2C04
:100864002708F3002608F2002508F1002408F00008
:100874000030F7003D30F6000930F5000030F40098
:100884000A128A112A260A128A117008FF3E831658
:100894000313930094010800700871040319532C86
:1008A400542C812C0130F400602C01300310F00D25
:1008B400F10DFF3E031D582C0130F407F11F632C8A
:1008C400642C572C71087302031D6A2C7008720281
:1008D400031C6D2C6E2C742C7008F2027108031C1E
:1008E400F303F30201300310F10CF00CFF3E031D7F
:1008F400752C0130F402031D802C812C642C7308A8
:10090400F1007208F0000800F401F50170087104A8
:1009140003198D2C8E2CC32C0130F6009A2C013037
:100924000310F00DF10DFF3E031D922C0130F6076C
:10093400F11F9D2C9E2C912C01300310F40DF50D0C
:10094400FF3E031D9F2C71087302031DAB2C70081E
:100954007202031CAE2CAF2CB62C7008F202710884
:10096400031CF303F302741401300310F10CF00CB4
:10097400FF3E031DB72C0130F602031DC22CC32C0D
:100984009E2C7508F1007408F00008000A128A1100
:10099400CD220A128A11003083120313A3000130FE
:1009A400A2008630A100A030A0000A128A111824E7
:1009B4000A128A110A128A1167250A128A110A1266
:1009C4008A11C8250A128A1101300A128A11F223E7
:1009D4000A128A11FB01FB0A01300A128A116423EC
:1009E4000A128A117330FB000A128A1148230A1270
:1009F4008A11FB01FB0A02300A128A1164230A12CB
:100A04008A117E30FB000A128A1148230A128A11C5
:100A14000A2D0A128A110028F300F401731C132D05
:100A2400142D152D7416F31C182D192D1A2DF416CA
:100A3400731D1D2D1E2D1F2D7417F31D222D232D07
:100A4400242DF41771080319282D292D2A2D741427
:100A5400FD30F4057415F4150A128A11AB220A123A
:100A64008A114E300A128A11FF220A128A1174085E
:100A74000A128A11FF220A128A110A128A11B32257
:100A84000A128A111030F200F20B462D0000FB30DE
:100A9400F4050A128A11AB220A128A114E300A1284
:100AA4008A11FF220A128A1174080A128A11FF227B
:100AB4000A128A110A128A11B3220A128A111030F8
:100AC400F200F20B632D000008005130F100803079
:100AD400F2000A128A11CC230A128A1120308312DE
:100AE4000313CF000A128A11AB220A128A1183124D
:100AF40003134F08CD004D070A128A11FF220A1270
:100B04008A1183160313111B882D892DAF2D0A1208
:100B14008A11B3220A128A110130F1008030F200E6
:100B24000A128A11CC230A128A11831203134F0862
:100B3400CD00CE014D08C1004E08C2000A128A1130
:100B440014230A128A114E30F1008030F2000A1286
:100B54008A11CC230A128A11C72D0A128A11B322D0
:100B64000A128A11013083120313CF0740304F0257
:100B7400031CBD2DBE2D742D2A30F1008030F200EF
:100B84000A128A11CC230A128A1108002730FC00A9
:100B9400F530FB00FB0BCC2DFC0BCC2DF10103300D
:100BA4000A128A110E250A128A110D30FC00FB303C
:100BB400FB00FB0BDB2DFC0BDB2DE02DF1010330E7
:100BC4000A128A110E250A128A114230FB00FB0B0D
:100BD400E92D0000F10103300A128A110E250A12D0
:100BE4008A114230FB00FB0BF52D0000F1010230AD
:100BF4000A128A110E250A128A110D30FC00FB30EC
:100C0400FB00FB0B032EFC0B032E082E28300A12CC
:100C14008A11DA220A128A110C300A128A11DA2293
:100C24000A128A1101300A128A11DA220A128A116E
:100C34000D30FC00FB30FB00FB0B1E2EFC0B1E2EAC
:100C4400232E06300A128A11DA220A128A110800A7
:100C54000030FC000030FB000030FA000030F900E6
:100C640073087204710470040319392E3A2E852E08
:100C74000130FD00482E0130F8000310F00DF10D95
:100C8400F20DF30DF80B3F2E0130FD07F31F4B2E31
:100C94004C2E3D2E0130F8000310F90DFA0DFB0D1A
:100CA400FC0DF80B4E2E73087702031D632E720899
:100CB4007602031D632E71087502031D632E7008EE
:100CC4007402031C662E672E762E7008F4027108D7
:100CD400031C710FF5027208031C720FF6027308ED
:100CE400031C730FF702791401300310F30CF20C98
:100CF400F10CF00CFF3E031D772E0130FD02031DA5
:100D0400842E852E4C2E7C08F3007B08F2007A0892
:100D1400F1007908F0000800720873040319932E97
:100D2400942E9A2E72087304031D992E9A2EA12EC6
:100D340070080A128A11AA220A128A11272F72082D
:100D4400093EF40073080318013E003EF5007408E0
:100D540084008317751C83130008F600840A0008B6
:100D6400F700760877040319B82EB92EEB2E720813
:100D7400093EF40073080318013E003EF5007408B0
:100D840084008317751C83130008F600840A000886
:100D9400F7007208023EF80073080318013E003E93
:100DA400F900780884008317791C83130008FA007B
:100DB400840A0008FB007B08803AFC007708803A2C
:100DC4007C02031DE72E76087A020318EA2EEB2E26
:100DD400272F720884008317731C83130008F40000
:100DE400840A0008F5007208023EF600730803182E
:100DF400013E003EF700760884008317771C8313B6
:100E040000087407F9007508F8000318F80A801F31
:100E14000C2FF8037808FA007908840083177A1CE9
:100E24008313700880007208023EF40073080318EC
:100E3400013E003EF500740884008317751C83137B
:100E440001308007840A0318800A08008312031300
:100E540022088400000884000A128A110D200A1254
:100E64008A11253A031D372F382FD22F22088400E8
:100E740001308007D001D1010030D400FF30D2000E
:100E8400FF30D300220884000008AA002A08840046
:100E94000A128A110D200A128A11753A031D532F62
:100EA400542FCB2F2308840083130008FF00023043
:100EB40080077F0884000008A600840A0008A700B1
:100EC400220884002A08013E8000C02F2030AB0095
:100ED4000130AB022B08A03E84000A30F000003041
:100EE400F1002708F3002608F2000A128A114E24A2
:100EF4000A128A117008303E831380000A30F00011
:100F04000030F100831203132708F3002608F200CF
:100F14000A128A1186240A128A1171088312031391
:100F2400A7007008A6002608270403199A2F9B2FF0
:100F3400B92F2B08031D9F2FA02F6A2FB92F2B0821
:100F4400A03E840083130008A400A5012408F00037
:100F54002508F1002008F2002108F3000A128A1182
:100F64008E260A128A11013083120313AB07203034
:100F74002B06031DBE2FBF2FA12FEB2F2A088400A1
:100F84000A128A110D200A128A11753A0319682F60
:100F9400CB2F831203132208840001308007EB2F28
:100FA40022088400000884000A128A110D200A1203
:100FB4008A11A400A5012408F0002508F1002008E6
:100FC400F2002108F3000A128A118E260A128A11ED
:100FD400CB2F080083120313D001D101D201D30116
:100FE400D4018313A0308400C0300A128A11BB22BA
:0C0FF4000A128A1183010A128A11C82C0B
:00000001FF
