:100000000A128A11FC2F00308A000408840A820731
:1000100000343234333433343034373437343634D4
:0E00200000346234723475346E346F34003440
:100BE6008316031311141118F92DFA2DF62D08008A
:100BF6008316031311151119012E022EFE2D08005E
:100C0600FA00F5017A080A128A1152260A128A1186
:100C16000330F9009730F800F80B0F2EF90B0F2E62
:100C2600142E0800FA00F501F50A7A080A128A114C
:100C360052260A128A110330F9009730F800F80B91
:100C4600222EF90B222E272E0800FC007C03031D02
:100C56002D2E2E2E322E7B087F3EFD00352E7B0854
:100C6600BF3EFD007D080A128A1103260A128A1168
:100C76000800F00070088312031393008316031311
:100C86001418462E472E412E11081F39031D4C2ECF
:100C96004D2E472E1419502E512E472E0800F700C0
:100CA6007508F1007708F60004300310F60CFF3ED5
:100CB600031D582E76080A128A11F5260A128A1181
:100CC6007508F10077080F390A128A11F5260A12FB
:100CD6008A1108007C2E7B0884000A128A110320E0
:100CE6000A128A110A128A1115260A128A1101306D
:100CF600FB077B0884000A128A1103200A128A1154
:100D0600003A031D872E882E6E2E08002830831287
:100D1600031394008316031391018312031320080F
:100D2600A4002108A5002208A6002308A700023077
:100D36000310A40DA50DA60DA70DFF3E031D9B2EAA
:100D46002708F3002608F2002508F1002408F00021
:100D56000030F7003D30F6000930F5000030F400B1
:100D66000A128A1198270A128A117008FF3E831602
:100D76000313930094010800003083120313A300A9
:100D86000130A2008630A100A030A0000A128A110C
:100D960089260A128A110A128A113D270A128A1115
:100DA600FB01FB0A01300A128A1128260A128A114F
:100DB6000930FB000A128A116D260A128A11FB01FC
:100DC600FB0A02300A128A1128260A128A110130F9
:100DD600FB000A128A116D260A128A11F12E0A12D6
:100DE6008A110028F30073080F39F200013003104E
:100DF600F20DFF3E031DFA2E0310720DF40071086A
:100E06000319062F072F082F7414F4140A128A11D7
:100E1600F3250A128A1100300A128A113C260A1298
:100E26008A1174080A128A113C260A128A110A12B9
:100E36008A11FB250A128A110000FD30F4050A12F8
:100E46008A11F3250A128A1100300A128A113C26E9
:100E56000A128A1174080A128A113C260A128A1189
:100E66000A128A11FB250A128A112130F200F20BAE
:100E76003A2F08001A30FC00F830FB00FB0B412F1C
:100E8600FC0B412F0000F10103300A128A11F526EE
:100E96000A128A110730FC007D30FB00FB0B512F34
:100EA600FC0B512FF10103300A128A11F5260A12A2
:100EB6008A112130FB00FB0B5E2FF10103300A1271
:100EC6008A11F5260A128A112130FB00FB0B692FC5
:100ED600F10102300A128A11F5260A128A1121300E
:100EE600FB00FB0B742F28300A128A1103260A1204
:100EF6008A110C300A128A1103260A128A1101304D
:100F06000A128A1103260A128A110330FC0097304E
:100F1600FB00FB0B8C2FFC0B8C2F912F06300A123B
:100F26008A1103260A128A1108000030FC000030DC
:100F3600FB000030FA000030F900730872047104F7
:100F460070040319A72FA82FF32F0130FD00B62F29
:100F56000130F8000310F00DF10DF20DF30DF80B52
:100F6600AD2F0130FD07F31FB92FBA2FAB2F01307C
:100F7600F8000310F90DFA0DFB0DFC0DF80BBC2F54
:100F860073087702031DD12F72087602031DD12F35
:100F960071087502031DD12F70087402031CD42F2B
:100FA600D52FE42F7008F4027108031C710FF502A7
:100FB6007208031C720FF6027308031C730FF70204
:100FC600791401300310F30CF20CF10CF00CFF3E17
:100FD600031DE52F0130FD02031DF22FF32FBA2F5B
:100FE6007C08F3007B08F2007A08F1007908F0002B
:0A0FF600080083010A128A11BF2EC1
:00000001FF
